:020000040800F2
:10000000A8A80020AD010008B51A0008FD160008D8
:10001000B11A0008110300088D1D0008000000003F
:10002000000000000000000000000000B51C0008F7
:100030003304000800000000B91A0008B71C0008CB
:10004000C7010008C7010008C7010008C701000870
:10005000C7010008C7010008C7010008C701000860
:10006000C7010008C7010008C7010008C701000850
:10007000C7010008C7010008C7010008C701000840
:10008000C7010008C7010008C70100080000000000
:10009000000000000000000000000000C701000890
:1000A000C7010008C7010008C7010008C701000810
:1000B000C7010008C7010008C7010008C701000800
:1000C000C7010008C7010008C7010008C7010008F0
:1000D000C7010008C7010008C701000800000000B0
:1000E000C7010008C7010008C701000800000000A0
:1000F000000000000000000000000000C701000830
:1001000000000000C7010008C7010008C70100087F
:1001100000000000000000000000000000000000DF
:10012000C7010008C7010008C7010008150300083F
:10013000C7010008000000000000000000000000EF
:10014000000000000000000000000000C7010008DF
:10015000C7010008C7010008C7010008C70100085F
:10016000C7010008C70100080000000000000000EF
:10017000000000000000000000000000000000007F
:1001800000000000C701000800000000000000009F
:10019000C7010008DFF810D000F0A8F800480047B9
:1001A000D5740108AFF30080A8A800200648804756
:1001B00006480047FEE7FEE7FEE7FEE7FEE7FEE74C
:1001C000FEE7FEE7FEE7FEE7791D0008950100085F
:1001D0002DE9F05F0546002092469B46884606467C
:1001E000814640241BE0284641464746224600F00F
:1001F0006CF853465A46C01A914110D3114618461E
:10020000224600F053F82D1A67EB01084F462246AC
:100210000120002100F04AF817EB00094E41201E92
:10022000A4F10104DFDC484631462A464346BDE8D6
:10023000F09FD2B201E000F8012B491EFBD27047BB
:100240000022F6E710B513460A4604461946FFF7A2
:10025000F0FF204610BD421C10F8011B0029FBD105
:10026000801A704710B5002200E0521C835C8C5C41
:10027000A34201D1002BF8D1D8B2E1B2401A10BD8F
:1002800030B504460020034600E05B1C934203D2D5
:10029000E05CCD5C401BF8D030BD034611F8012B6B
:1002A00000F8012B002AF9D118467047202A04DBF8
:1002B000203A00FA02F1002070479140C2F1200379
:1002C00020FA03F3194390407047202A04DB203AB8
:1002D00021FA02F00021704721FA02F3D040C2F166
:1002E000200291400843194670470000064C074D14
:1002F00006E0E06840F0010394E8070098471034F6
:10030000AC42F6D3FFF74AFF544403087444030891
:1003100000BFFEE710B51AF0CDF8024800F08EF8E5
:1003200010BD00006C010020014608781038182329
:10033000B0FBF3F20848805CC865032A05D9086859
:100340006FF30900001D886503E008686FF309007A
:100350008865886D70470000D0A401080146002020
:100360008A6A8B69CBB932B1012A0DD0022A03D037
:10037000032A10D10EE000BFCB6A03F08073B3F103
:10038000807F00D1012007E0CB6AB3F1C07F00D1AC
:10039000012001E000E000BF34E08B69B3F5005FAD
:1003A0001AD132B1012A07D0022A03D0032A11D16F
:1003B0000AE000BF01200EE0CB6A03F08073B3F1C6
:1003C000807F00D1012006E0CB6AB3F1C07F00D16D
:1003D000012000E000BF15E032B1012A05D0022A59
:1003E00004D0032A0CD103E000BF00BF012008E0C5
:1003F000CB6A03F08073B3F1807F00D1012000E06D
:1004000000BF00BF704730B50468246824F480241E
:1004100005682C60046863608468402C04D104681B
:10042000A2600468E16003E00468A1600468E2601F
:1004300030BD704772B600BFFEE70000F8B5044655
:10044000002000908C4800684FF41651B0FBF1F783
:10045000A56D2E6894F85C1008208840304098B153
:100460002068006800F0040070B12068006820F087
:1004700004002168086094F85C1008208840A86097
:10048000606D40F00100606594F85C1001208840C8
:10049000304068B12068406900F0800040B194F8B5
:1004A0005C1001208840A860606D40F0020060652B
:1004B00094F85C1004208840304068B120680068DF
:1004C00000F0020040B194F85C1004208840A8605D
:1004D000606D40F00400606594F85C101020884066
:1004E000304078B32068006800F0080050B394F8FA
:1004F0005C1010208840A8602068006800F480200C
:1005000080B12068006800F4002028B9206CC8B1D0
:100510002046216C884715E0A06C98B12046A16C5C
:1005200088470FE02068006800F4807028B92068D0
:10053000006820F0080021680860206C10B1204697
:10054000216C884794F85C102020884030400028B7
:1005500065D02068006800F0100000285FD094F893
:100560005C1020208840A86094F83500052828D128
:100570002068006820F01600216808602068406943
:1005800020F0800021684861206C08B9A06C28B177
:100590002068006820F008002168086094F85C106A
:1005A0003F208840A860012084F8350000BF00206B
:1005B00084F8340000BF206D10B12046216D8847BB
:1005C000F8BD2068006800F4802080B120680068D1
:1005D00000F4002028B9606C10B12046616C884797
:1005E0001DE0E06BD8B12046E16B884717E020683A
:1005F000006800F4807068B92068006820F010007E
:1006000021680860012084F8350000BF002084F8CC
:10061000340000BFE06B10B12046E16B8847606D8D
:1006200038B3606D00F00100F0B1052084F83500AA
:100630002068006820F001002168086000BF009871
:10064000401C0090B84200D905E02068006800F026
:1006500001000028F3D100BF012084F8350000BF5D
:10066000002084F8340000BFE06C10B12046E16C3B
:10067000884700BFA4E70000100000202DE9F041EA
:100680000446002500F0B8F9074614B90120BDE87A
:10069000F081606A00B100BF022084F8350000BF1D
:1006A000002084F8340000BF2068006820F00100BA
:1006B000216808600AE000F09FF9C01B052805D9F1
:1006C00020206065032084F83500E0E7206800689A
:1006D00000F001000028EED120680568214805409F
:1006E000D4E901010843E1680843216908436169CD
:1006F0000843A1690843E1690843216A08430543A7
:10070000606A042803D1D4E90B010843054320683B
:1007100005602068456925F00705606A0543606A41
:1007200004280DD1A06A0543E06A48B12046FFF7CE
:1007300015FE28B140206065012084F83500A6E749
:10074000206845612046FFF7EFFD064694F85C10EF
:100750003F208840B06000206065012084F83500AB
:10076000002094E73F8010F02DE9F04704460D4645
:1007700016461F464FF00008D4F8589000BF94F872
:100780003400012802D10220BDE8F087012084F85E
:10079000340000BF94F83500012825D1022084F8E8
:1007A0003500002060653B46324629462046FFF76B
:1007B0002AFE94F85C103F208840C9F808002068A1
:1007C000006840F0160021680860206C28B120689D
:1007D000006840F00800216808602068006840F068
:1007E00001002168086006E000BF002084F83400A2
:1007F00000BF4FF002084046C6E7000070B504464F
:1008000000F0FAF806462546681C10B10448007846
:10081000054400BF00F0F0F8801BA842FAD370BD79
:100820000C000020F8B502460B46002500240020ED
:100830000021C6E0012606FA01F51E6806EA050455
:10084000AC4274D11E7906F00306012E04D01E7945
:1008500006F00306022E13D190684F000326BE4017
:10086000B0434F00DE68BE403043906050680126C0
:100870008E40B0431E79C6F300168E403043506060
:100880001E7906F00306032E09D0D0684F00032618
:10089000BE40B0434F009E68BE403043D0601E79DA
:1008A00006F00306022E13D1CF0802F1200656F8F7
:1008B00027004E07F70E0F26BE40B0434F07FF0E2E
:1008C0001E69BE403043CF0802F1200646F82700DB
:1008D00010684F000326BE40B0431E7906F00306A1
:1008E0004F00BE40304310605E6806F44036002E74
:1008F00066D000BF00260096344E366846F4804627
:10090000324F3E603E46366806F48046009600BF91
:1009100000BF2F4E8F0856F827008E07370F0F267F
:10092000BE40B0432B4EB24202D1002615E047E054
:10093000294EB24201D101260FE0284EB24201D128
:1009400002260AE0264EB24201D1032605E0254EDA
:10095000B24201D1042600E007268F073F0FBE40B8
:1009600030431B4E8F0846F827001F4E3068A043C7
:100970005E6806F4803606B120431B4E3060361D9B
:100980003068A0435E6806F4003606B12043164E78
:10099000361D3060361D3068A0435E6806F4801650
:1009A00006B12043104E08363060361D3068A04333
:1009B0005E6806F4001606B120430B4E0C3630601C
:1009C000491C1029FFF436AFF8BD0000443802403E
:1009D00008380140000002400004024000080240C4
:1009E000000C024000100240003C01400AB181614D
:1009F00001E00B0483617047014800687047000004
:100A000004000020034800680349097808440149AC
:100A100008607047040000200C00002010B50D484D
:100A2000006840F400700B4908600846006840F414
:100A3000806008600846006840F480700860032009
:100A400000F0A2F8002000F007F800F02BF80020DA
:100A500010BD0000003C024070B504460E4800780E
:100A60004FF47A71B1FBF0F00C490968B1FBF0F575
:100A7000284600F029FE08B1012070BD102C07D2D5
:100A800000222146501E00F041F80548046001E0B4
:100A90000120F2E70020F0E70C0000201000002009
:100AA0000800002008B500BF002000900E48006834
:100AB00040F480400C4908600846006800F480401B
:100AC000009000BF00BF00BF00200090081F00681A
:100AD00040F08050091F08600846006800F0805010
:100AE000009000BF00BF08BD4438024001460846E0
:100AF000002809DB00F01F0301229A4043099B00F4
:100B000003F1E023C3F8002100BF70472DE9F05F37
:100B100080460D461646002701F03AF90746394649
:100B20002A46334601F00700C0F1070ABAF1040F64
:100B300002D94FF0040A01E0C0F1070AD14600F1E2
:100B4000040ABAF1070F02D24FF0000A01E0A0F147
:100B5000030AD4464FF0010A0AFA09FAAAF1010A77
:100B60000AEA020A0AFA0CFA4FF0010B0BFA0CFB24
:100B7000ABF1010B0BEA030B4AEA0B04214640469A
:100B800001F00EF9BDE8F09F00BF00F00702064B30
:100B900019684FF6FF031940044B0B4343EA022147
:100BA000014B196000BF70470CED00E00000FA0532
:100BB00070B504460D460CB9012070BD5848006858
:100BC00000F00700A84209D255490D700846006898
:100BD00000F00700A84201D00120EEE7207800F0E5
:100BE000020002281DD1207800F00400042805D15D
:100BF0004C48006840F4E0504A490860207800F012
:100C00000800082805D14748006840F4604045497D
:100C100008604448006820F0F000A168084341499A
:100C20000860207800F00100A8B36068012807D1AF
:100C30003C4808380068C0F34040B8B90120BCE720
:100C40006068022802D06068032807D13548083858
:100C50000068C0F3406048B90120AEE73148083869
:100C60000068C0F3400008B90120A6E72D480068DD
:100C700020F00300616808432A490860FFF7BCFEC2
:100C8000064609E0FFF7B8FE801B41F28831884232
:100C900002D9032091E707E02248006800F00C0029
:100CA0006168B0EB810FEDD11D48006800F00700CE
:100CB000A84209D91A490D700846006800F00700DB
:100CC000A84201D0012078E7207800F00400042831
:100CD00007D11448006820F4E050E1680843114946
:100CE0000860207800F00800082808D10D48006846
:100CF00020F46040216940EAC1000A49086000F020
:100D000019F808490968C1F30311074A515CC84042
:100D10000649086006480068FFF79EFE00204CE781
:100D2000003C024008380240D8A40108100000200E
:100D3000080000202DE9F047002400250026A146E8
:100D40002548006800F00C0020B1042805D00828D0
:100D50003AD105E0DFF8849039E0DFF8849036E09E
:100D60001D48001F006800F03F041B48001F00687A
:100D700000F4800078B11A481749091F0968C1F3C7
:100D80008811A0FB01700146224600233846FFF778
:100D90001FFA05460EE011480F49091F0968C1F303
:100DA0008811A0FB01700146224600233846FFF758
:100DB0000FFA05460848001F0068C0F30140401CB8
:100DC0004600B5FBF6F902E0DFF8109000BF00BF67
:100DD0004846BDE8F0870000083802400024F400CF
:100DE00040787D01F8B504460CB90120F8BD2078A3
:100DF00000F00100002874D0F948006800F00C00F1
:100E000004280DD0F648006800F00C00082813D123
:100E1000F348001F006800F48000B0F5800F0BD18C
:100E2000EF4808380068C0F34040002859D0606897
:100E3000002856D10120D9E700BF6068B0F5803F97
:100E400008D1E7480838006840F48030E4490839A0
:100E500008601EE06068B0F5A02F0DD1E0480838AA
:100E6000006840F48020DE490839086008460068C0
:100E700040F4803008600CE0D9480838006820F45D
:100E80008030D749083908600846006820F480207F
:100E9000086000BF606890B1FFF7AEFD054606E050
:100EA000FFF7AAFD401B642801D903209EE7CC4828
:100EB00008380068C0F340400028F1D011E0FFF787
:100EC0009BFD054606E0FFF797FD401B642801D90E
:100ED00003208BE7C24808380068C0F34040002870
:100EE000F1D1207800F0020002285FD1BC480068F0
:100EF00000F00C0058B1BA48006800F00C00082857
:100F00001CD1B748001F006800F48000B0B9B44895
:100F100008380068C0F3400020B1E068012801D023
:100F2000012063E7AE480838006820F0F800216926
:100F300040EAC100AA490839086037E0E06800B318
:100F40000120A8490860FFF757FD054606E0FFF7B6
:100F500053FD401B022801D9032047E7A048083869
:100F60000068C0F340000028F1D09D4808380068B0
:100F700020F0F800216940EAC10099490839086069
:100F800014E0002097490860FFF736FD054606E0AB
:100F9000FFF732FD401B022801D9032026E79048C5
:100FA00008380068C0F340000028F1D1207800F034
:100FB000080008282CD16069A8B101208A4908607E
:100FC000FFF71AFD054606E0FFF716FD401B022855
:100FD00001D903200AE782486C300068C0F3400062
:100FE0000028F1D014E000207F490860FFF704FDDD
:100FF000054606E0FFF700FD401B022801D903204B
:10100000F4E677486C300068C0F340000028F1D166
:10101000207800F00400042870D100277048383090
:10102000006800F0805090B900BF002000906C482C
:101030003830006840F0805069493831086008460F
:10104000006800F08050009000BF00BF0127674893
:10105000006800F48070B0B96448006840F48070A3
:1010600062490860FFF7C8FC054606E0FFF7C4FCCC
:10107000401B022801D90320B8E65C48006800F450
:1010800080700028F2D000BFA068012808D1544821
:101090006830006840F001005149683108601DE087
:1010A000A06805280DD14E486830006840F0040063
:1010B0004B49683108600846006840F0010008604C
:1010C0000CE047486830006820F00100444968316E
:1010D00008600846006820F00400086000BFA068AF
:1010E000A8B1FFF789FC054609E0FFF785FC401B26
:1010F00041F28831884202D9032077E626E0384859
:1011000068300068C0F340000028EED013E0FFF71D
:1011100073FC054608E0FFF76FFC401B41F2883185
:10112000884201D9032061E62D4868300068C0F389
:1011300040000028EFD1012F07D12948383000683E
:1011400020F0805026493831086000BFA06900288F
:1011500045D02348006800F00C0008285DD0A06945
:10116000022845D100201F490866FFF745FC0546C7
:1011700006E0FFF741FC401B022801D9032035E6B9
:10118000174808380068C0F340600028F1D1D4E95E
:1011900007010843616A40EA81110122A06AC2EB9B
:1011A000500041EA00412C20005D41EA00600C49FA
:1011B000091F086001200B490866FFF71DFC054662
:1011C00006E0FFF719FC401B022801D903200DE6B9
:1011D000034808380068C0F340600028F1D049E0B7
:1011E0000838024000004742800E4742007000402D
:1011F000002021490866FFF7FFFB054606E0FFF7E0
:10120000FBFB401B022801D90320EFE51B480068C7
:10121000C0F340600028F2D12CE0A069012800D181
:10122000E4E51648001D0668A069012820D006F4F0
:101230008001E06981421BD106F03F01206A8142B2
:1012400016D147F6C0703040616AB0EB811F0FD1F4
:1012500006F440310122A06AC2EB5000B1EB004F0E
:1012600006D106F070612C20005DB1EB006F01D05B
:101270000120BBE50020B9E50000474200380240EC
:10128000704710B504460CB9012010BD606A38B92A
:101290006068B0F5827F00D105E00021E16102E0E5
:1012A0000021216161610021A16294F8510028B9F7
:1012B000002084F85000204600F048F8022084F80E
:1012C00051002068006820F0400021680860A08874
:1012D00000F48270218901F404410843A18901F4DA
:1012E00000610843217C01F002010843217D01F0E7
:1012F00001010843218B01F400710843217F01F0B3
:10130000380108432021095D01F080010843218D47
:1013100001F400510843216808600421A06901EA32
:10132000104094F8241001F010010843216848602F
:101330002068C06920F400602168C86100206065F1
:10134000012084F8510000209FE7000010B586B00E
:101350000446142101A8FEF773FF2A492068884239
:101360004DD100BF002000902748006840F4805015
:10137000254908600846006800F48050009000BFCE
:1013800000BF00BF002000901F481438006840F0E4
:1013900001001D49143908600846006800F001008A
:1013A000009000BF00BFA02001900220029000200A
:1013B0000390032004900520059001A91348FFF72E
:1013C00031FA1348134908604FF0C060486040216B
:1013D000104881600021C1604FF4806101610021EB
:1013E00041618161C16101624162FFF747F908B162
:1013F000FFF720F800BF0748A064846300BF06B071
:1014000010BD00000030014044380240000002409E
:10141000586402406C0100202DE9F84F04468846CC
:1014200016461D464FF0000A00BF94F850000128F0
:1014300002D10220BDE8F88F012084F8500000BFDF
:10144000FFF7DAFA0746B14694F85100012802D0B6
:101450004FF0020AADE0B8F1000F00D016B94FF01E
:10146000010AA6E0032084F8510000206065C4F85A
:101470003080A686E686A063A087E087606420644B
:10148000A068B0F5004F0BD12068006820F0400044
:10149000216808602068006840F480402168086086
:1014A0002068006800F04000402805D020680068EF
:1014B00040F0400021680860E068B0F5006F2FD16F
:1014C000606810B1B9F1010F09D1206B0088216863
:1014D000C860206B801C2063E08E401EE0861BE00D
:1014E0002068806800F0020002280AD1206B008882
:1014F0002168C860206B801C2063E08E401EE0865F
:101500000AE0FFF779FAC01BA84201D3681C00B9B2
:1015100015B94FF0030A4CE0E08E0028E0D12EE030
:10152000606810B1B9F1010F09D1206B0078216812
:101530000873206B401C2063E08E401EE0861BE099
:101540002068806800F0020002280AD1206B007831
:1015500021680873206B401C2063E08E401EE086EB
:101560000AE0FFF749FAC01BA84201D3681C00B982
:1015700015B94FF0030A1CE0E08E0028E0D13A468E
:101580002946204600F0F4FA08B120206065A068E2
:1015900050B900BF002000902068C068009020680B
:1015A0008068009000BF00BF606D08B14FF0010A75
:1015B00000BF012084F8510000BF002084F85000D3
:1015C00000BF504636E700002DE9F04104460E46C4
:1015D0001546002700BF94F85000012802D10220D0
:1015E000BDE8F081012084F8500000BF94F851005C
:1015F000012801D0022758E006B10DB9012754E0B7
:10160000032084F85100002060652663A586E586E6
:10161000A06360642064A087E087A068B0F5004FF5
:101620000BD12068006820F0400021680860206825
:10163000006840F48040216808601F48A16C08647D
:101640001E48A16CC8631E48A16CC8640020A16C30
:101650000865E38ED4F800C00CF10C02216BA06C7D
:10166000FFF782F840B1606D40F01000606501271F
:10167000012084F8510018E02068006800F0400064
:10168000402805D02068006840F0400021680860CC
:101690002068406840F02000216848602068406869
:1016A00040F002002168486000BF00BF002084F8BD
:1016B000500000BF384693E7E31A0008F11A00080B
:1016C000BB1A00087047704770B504462546681E6F
:1016D000B0F1807F01D301200FE0681E4FF0E021C0
:1016E00048610F214FF0FF3000F05AFB00204FF00F
:1016F000E021886107200861002070BD00BFFEE77F
:101700002DE9F04107460C4615461E462A2000F0FA
:101710003FF9384600F020F9284600F01DF92B204B
:1017200000F036F9204600F017F9304600F014F9C1
:101730002C2000F02DF9BDE8F08100002DE9F84FD4
:1017400006460F4614461D46DDF82880681E83B203
:10175000601E82B239463046FFF7D2FFB9461AE022
:10176000B24612E0B8F8000000128DF8000098F8B8
:1017700000008DF801006423022269460848FFF743
:101780004BFE0AF101001FFA80FAA245EADB09F1DB
:1017900001001FFA80F9A945E2DBBDE8F88F0000DF
:1017A0001401002008B5002202216A48FFF71EF943
:1017B0006420FFF723F8012202216648FFF716F99B
:1017C0006420FFF71BF8012208216248FFF70EF999
:1017D0006420FFF713F8112000F0DAF86420FFF717
:1017E0000DF8362000F0D4F8002000F0C7F83A20B9
:1017F00000F0CEF8052000F0C1F8B22000F0C8F8E3
:101800000C2000F0BBF80C2000F0B8F8002000F02D
:10181000B5F8332000F0B2F8332000F0AFF8B7206D
:1018200000F0B6F8352000F0A9F8BB2000F0B0F8C1
:10183000192000F0A3F8C02000F0AAF82C2000F036
:101840009DF8C22000F0A4F8012000F097F8C32012
:1018500000F09EF8122000F091F8C42000F098F8F3
:10186000202000F08BF8C62000F092F80F2000F046
:1018700085F8D02000F08CF8A42000F07FF8A1209B
:1018800000F07CF8E02000F083F8D02000F076F83B
:10189000042000F073F80D2000F070F8112000F023
:1018A0006DF8132000F06AF82B2000F067F83F2055
:1018B00000F064F8542000F061F84C2000F05EF86D
:1018C000182000F05BF80D2000F058F80B2000F015
:1018D00055F81F2000F052F8232000F04FF8E120C7
:1018E00000F056F8D02000F049F8042000F046F847
:1018F0000C2000F043F8112000F040F8132000F015
:101900003DF82C2000F03AF83F2000F037F8442052
:1019100000F034F8512000F031F82F2000F02EF8BC
:101920001F2000F02BF81F2000F028F8202000F0E6
:1019300025F8232000F022F8212000F029F80020CB
:10194000F0231A4601460090FFF7F8FE292000F028
:101950001FF808BD0000024038B5044620128DF87B
:101960000000E0B28DF801006423022269460248BB
:10197000FFF752FD38BD00001401002001B56423BB
:10198000012269460148FFF747FD08BD1401002008
:1019900001B5002204210748FFF728F8642301223B
:1019A00069460548FFF738FD012204210148FFF789
:1019B0001DF808BD000002401401002008B500BF5A
:1019C000002000900A48006840F480000849086040
:1019D0000846006800F48000009000BF00BF0022AD
:1019E00011463B20FFF792F83B20FFF77FF808BD38
:1019F0003038024000B587B0142102A8FEF720FC61
:101A000000BF002001901748006840F08000154991
:101A100008600846006800F08000019000BF00BF29
:101A200000BF002001900846006840F001000860F7
:101A30000846006800F00100019000BF00BF0122CD
:101A40000E210948FEF7D2FF0E20029001200390DC
:101A500004900220059002A90348FEF7E3FE07B0B8
:101A600000BD0000303802400000024010B50E48B2
:101A70000E4908604FF48270486000210B48816075
:101A8000C160016141614FF4007181610021C16158
:101A90000162416281620A21C162FFF7F2FB08B173
:101AA000FEF7C8FC10BD000000300140140100200A
:101AB00000BFFEE700BFFEE7704770B50546AC6BA0
:101AC0002068406820F0030021684860606D40F0A5
:101AD00010006065012084F851002046FFF7D0FB1C
:101AE00070BD70B50446A56B2846FFF7ECFD70BDD0
:101AF000F8B50546AC6BFEF77FFF06462868006820
:101B000000F48070B0F5807F2DD02068406820F010
:101B10002000216848602068406820F002002168A9
:101B2000486032466421204600F022F818B1606D0A
:101B300040F020006065A06850B900BF0020009010
:101B40002068C068009020688068009000BF00BFD7
:101B50000020E086012084F85100606D18B1204615
:101B6000FFF78EFBF8BD2046FFF7ACFD00BFF9E79D
:101B70007CB504460D461646164800681821B0FB91
:101B8000F1F01549B0FBF1F04FF47A714843019040
:101B90006068B0F5827F0DD12B460022802120465F
:101BA000009600F01BF898B1606D40F02000606571
:101BB00003207CBD00BF019800B908E00198401ED9
:101BC000019020688068C0F3C0100028F3D100BFE6
:101BD0000020EEE71000002040420F002DE9F84FF2
:101BE00004460D4690461E46DDF82890FEF704FF99
:101BF000A0EB0900371AFEF7FFFE82462C4800686A
:101C0000C0F3CB307843009045E0701C002842D0F0
:101C1000FEF7F2FEA0EB0A00B84200D2A7BB206894
:101C2000406820F0E000216848606068B0F5827F7D
:101C30000DD1A068B0F5004F03D0A068B0F5806F5B
:101C400005D12068006820F0400021680860A06A83
:101C5000B0F5005F0DD100BF2068006820F400508F
:101C6000216808602068006840F40050216808601E
:101C700000BF012084F8510000BF002084F850000C
:101C800000BF0320BDE8F88FFFE7009800B90027E8
:101C90000098401E0090206880682840A84201D12A
:101CA000012000E000204045AFD10020EAE700001D
:101CB00010000020704710B5FEF7A4FE10BD000014
:101CC00000B593B0302107A8FEF7BAFA142102A894
:101CD000FEF7B6FA00BF002001902548006840F0EA
:101CE0008050234908600846006800F08050019049
:101CF00000BF00BF00BF002001901E48006820F414
:101D0000404040F400401B4908600846006800F469
:101D10004040019000BF00BF0220079001200A90C0
:101D200010200B9002200D9000210E9108210F91A0
:101D300054211091022111910421129107A8FFF75B
:101D400051F808B1FEF776FB0F20029002200390B5
:101D5000002004904FF4805005900020069002214E
:101D600002A8FEF725FF08B1FEF764FB13B000BD23
:101D700040380240007000400348006840F47000A2
:101D8000014908607047000088ED00E000BFFEE7F1
:101D900002480068C0F30220704700000CED00E02C
:101DA00010B5002804DB0A07130E054A135406E099
:101DB0000A07140E034A00F00F031B1FD45410BD72
:101DC00000E400E018ED00E002E008C8121F08C1BE
:101DD000002AFAD170477047002001E001C1121FAC
:101DE000002AFBD17047000010B540210A4801F0DD
:101DF000E7FB15F012F909490860002304221E21AF
:101E0000074814F02DFE0749086003F03FF8002052
:101E10000549087010BD0000382300208400002010
:101E20007D4F00088C000020880000202DE9F0473D
:101E300005460F4616461C46152E30D2DFE806F042
:101E40000B3034495765839AAFCDD6F9F7F6F5F4E0
:101E5000F3F2F1F0EF0028460BF0D4FA814600EBE4
:101E6000D9704FEA600A38460BF0CCFA804600EB96
:101E7000D870AAEB600000B2208028460BF06BFA05
:101E8000814600EBD9704FEA600A38460BF063FADE
:101E9000804600EBD870AAEB600000B260806AE177
:101EA00000202080608066E128460BF0ABFA814676
:101EB00000EBD9704FEA600A38460BF0A3FA80466F
:101EC00000EBD870AAEB600000B220800020608098
:101ED00051E128460BF096FA804638460BF092FA0C
:101EE000A8EB000000B220800020608043E10020C9
:101EF000208028460BF02FFA804638460BF02BFA4C
:101F0000A8EB000000B2608035E128460BF07AFAB9
:101F1000814600EBD9704FEA600A38460BF072FA3E
:101F2000804600EBD870AAEB600000B22080284603
:101F30000BF011FA804638460BF00DFAA8EB0000C2
:101F400000B2608017E128460BF05CFA8046384604
:101F50000BF058FAA8EB000000B2208028460BF0E6
:101F6000FAF9804638460BF0F6F9A8EB000000B20B
:101F7000608000E10020208028460BF0ECF98146CB
:101F800000EBD9704FEA600A38460BF0E4F980465E
:101F900000EBD870AAEB600000B26080EBE028464E
:101FA0000BF030FA804638460BF02CFAA8EB000014
:101FB00000B2208028460BF0CEF9814600EBD970A4
:101FC0004FEA600A38460BF0C6F9804600EBD8703D
:101FD000AAEB600000B26080CDE00020208038468F
:101FE0000BF0B9F9404200B26080C4E028460BF023
:101FF00009FA814600EBD9704FEA600A38460BF0C7
:1020000001FA804600EBD870AAEB600000B2208095
:1020100038460BF0A0F9404200B26080ABE09AE095
:1020200082E07AE067E04DE043E032E01AE012E05F
:10203000FFE728460BF0E6F9804638460BF0E2F958
:10204000A8EB000000B2208038460BF084F9404233
:1020500000B260808FE00020208028460BF07BF9E2
:10206000608088E028460BF0CDF9814600EBD970FE
:102070004FEA600A38460BF0C5F9804600EBD8708D
:10208000AAEB600000B2208028460BF064F9608063
:1020900071E028460BF0B6F9804638460BF0B2F9ED
:1020A000A8EB000000B2208028460BF054F96080B5
:1020B00061E038460BF0A6F9404200B220800020D3
:1020C000608058E038460BF09DF9404200B2208015
:1020D00028460BF040F9814600EBD9704FEA600AC0
:1020E00038460BF038F9804600EBD870AAEB600058
:1020F00000B260803FE038460BF084F9404200B205
:10210000208028460BF027F9804638460BF023F94B
:10211000A8EB000000B260802DE028460BF072F9B9
:1021200020800020608026E028460BF06BF920809C
:1021300028460BF010F9814600EBD9704FEA600A8F
:1021400038460BF008F9804600EBD870AAEB600027
:1021500000B260800FE028460BF054F9208028463A
:102160000BF0F9F8804638460BF0F5F8A8EB0000C4
:1021700000B2608000BF00BF20882988084400B2F8
:10218000208060886988084400B26080BDE8F087DC
:1021900030B50346B1F90040B2F90050AC4202DD5F
:1021A000B1F9004001E0B2F900401C80B1F90240F1
:1021B000B2F90250AC4202DDB1F9024001E0B2F9DD
:1021C00002405C80B1F90440B2F90450AC4202DA3A
:1021D000B1F9044001E0B2F904409C80B1F9064035
:1021E000B2F90650AC4202DAB1F9064001E0B2F9A8
:1021F0000640DC800120B3F90040B3F90450AC4242
:1022000005DCB3F90240B3F90650AC4200DD002012
:1022100030BDF8B504460D4616460027B4F9000057
:10222000B5F90010884212DBB4F90200B5F90210CA
:1022300088420CDBB4F90400B5F90410884206DCCE
:10224000B4F90600B5F90610884200DC01270EB982
:102250003846F8BD2088ADF800006088ADF802006F
:1022600032466946284600F04CF808B90020F0E7ED
:10227000A088ADF800006088ADF8020032466946DB
:10228000284600F03EF808B90020E2E72088ADF8C3
:102290000000E088ADF8020032466946284600F0AA
:1022A00030F808B90020D4E7A088ADF80000E08835
:1022B000ADF8020032466946284600F022F808B917
:1022C0000020C6E70120C4E70246B2F90000B1F9D8
:1022D0000430984213DCB2F90400B1F9003098429E
:1022E0000DDBB2F90200B1F90630984207DCB2F911
:1022F0000600B1F90230984201DB0120704700204E
:10230000FCE72DE9FC5F05460E4614464FF0000A37
:10231000B6F90000B5F90010884213DBB6F90000E9
:10232000B5F9041088420DDCB6F90200B5F90210C7
:10233000884207DBB6F90200B5F90610884201DCD5
:102340004FF0010ABAF1000F02D10020BDE8FC9F56
:10235000002C01DC0120F9E728460BF053F88346F6
:1023600000EBDB70471028460AF0F5FF834600EBD0
:10237000DB704FEA6008474501DA384600E0404626
:1023800081464C4500DD4C462888ADF80000288881
:10239000204400B2ADF804006888ADF802006888F7
:1023A000204400B2ADF80600002231466846FFF72F
:1023B000A8FF80B1BDF80400204400B2ADF80400CD
:1023C000BDF80600204400B2ADF80600314668466C
:1023D00013F0D8FCBAE7E888001B00B2ADF80200A1
:1023E000E888ADF80600002231466846FFF789FF0D
:1023F00080B1BDF80400204400B2ADF80400BDF87F
:102400000200001B00B2ADF802003146684613F02E
:10241000B9FC9BE7A888001B00B2ADF80000A888B3
:10242000ADF80400002231466846FFF76AFF80B12C
:10243000BDF80000001B00B2ADF80000BDF80200BE
:10244000001B00B2ADF802003146684613F09AFC5A
:102450007CE76888ADF802006888204400B2ADF8D7
:102460000600002231466846FFF74BFF80B1BDF8F9
:102470000000001B00B2ADF80000BDF806002044CB
:1024800000B2ADF806003146684613F07BFC5DE70C
:1024900001205BE710B5B1F90030B2F90040A3426A
:1024A00002DAB1F9003001E0B2F900300380B1F98D
:1024B0000230B2F90240A34202DAB1F9023001E07F
:1024C000B2F902304380B1F90430B2F90440A342BA
:1024D00002DDB1F9043001E0B2F904308380B1F9D2
:1024E0000630B2F90640A34202DDB1F9063001E040
:1024F000B2F90630C38010BD2DE9FF4F87B01C46EE
:10250000DDE91467022F02DA0BB0BDE8F08F06B9DF
:10251000FAE701F0FDFD804640460BF077FD82466C
:102520000AF11005DAF80800069004A8DDE90712A0
:10253000FFF72EFE8346BBF1000F00D1E4E7BDF8A4
:1025400010002988401A00B2ADF81000BDF8120042
:102550006988401A00B2ADF81200BDF8140029884D
:10256000401A00B2ADF81400BDF816006988401A90
:1025700000B2ADF81600D4B198F8080000F00100E0
:10258000A8B904A80AF014FF03904FF000090AE06C
:1025900014F80900802801DDFF2000E0002004F885
:1025A000090009F1010903988145F1DB00BFD8F862
:1025B000140048B1CDE90074029604AA2846099B8C
:1025C000069908F077FE16E0169848B9CDE9007430
:1025D000029604AA2846099B069908F055FC0AE0D1
:1025E0001698CDE90074CDE9026004AA2846099B3B
:1025F000069908F097FB00BF86E72DE9FF4F89B0E9
:1026000016461C46DDE91678B8F1020F02DA0DB065
:10261000BDE8F08F07B9FAE707A8DDE90912FFF76F
:10262000B7FD0690069800B9F1E701F071FD81460B
:1026300048460BF0EBFC82460AF11005DAF8080078
:102640000590BDF81C002988401A00B2ADF81C00A6
:10265000BDF81E006988401A00B2ADF81E00BDF832
:1026600020002988401A00B2ADF82000BDF82200F1
:102670006988401A00B2ADF82200D4B199F8080078
:1026800000F00100A8B907A80AF092FE04904FF0EC
:10269000000B0AE014F80B00802801DDFF2000E0A9
:1026A000002004F80B000BF1010B04988345F1DBCB
:1026B00000BFD9F8140050B1CDE90068CDE9024758
:1026C00007AA28460A9B059915F0CDF918E0189835
:1026D00050B9CDE90068CDE9024707AA28460A9B10
:1026E000059914F0C7FF0BE01898CDE90068CDE913
:1026F0000247049007AA28460A9B059914F0FEFE9B
:1027000000BF84E72DE9FF5F814614F086FC03904B
:10271000002002906749D9F80C0008600021484663
:1027200014F09CFB63480068C06B30B9002061491D
:102730000968C1F86801BDE8FF9F13F049FD13F077
:102740008FFC5C480068B0F86801C0F309000028FD
:102750007ED0584800680BF0F4FC00287FD0554824
:102760000068406900287AD1524800680BF04EFC9E
:10277000054613F05BFE00BFA8690028FCD10027C6
:102780004C490968B1F90010480001F04DF80746BE
:10279000D5F808A02968A868884201D1686800E0D7
:1027A00028680190434800680BF047FC0646002467
:1027B00045E04048006800F5A470005DE8BB3D4876
:1027C0000068483030F934103A480068483000EB6F
:1027D000C400B0F9020006FB00104FEA400835497A
:1027E0000968483101EBC4000AF0DBFD40000090AD
:1027F00030480068483000EBC400B0F902B012E085
:10280000019800EB08013846009A01F011F90AEB33
:1028100008003946009A01F00BF908EB46080BF165
:1028200001000FFA80FB23480068483000EBC40029
:10283000B0F906005845E3DA00BF601C84B21D48B9
:102840000068B0F86801C0F30900A042B1DC01E003
:1028500029E004E017B1384601F096F800BF4FF4C4
:10286000807114480068483001F094FA2021114822
:10287000006800F5A47001F08DFA00200D49096888
:10288000C1F86801039814F0BBFB02900948006886
:10289000806940B1074800688369074802680548B5
:1028A00002990068984700F093FF00F007F800BF16
:1028B00041E700002C0000202800002010B505484A
:1028C000006830B10348006810F05CFE0020014948
:1028D000086010BD3C00002010B54421014800F004
:1028E0006FFE10BD2023002010B51821014800F014
:1028F00067FE10BD442300202DE9FF4F8DB0054633
:10290000DDE91AA4109880B9BAF5807F0DD10020B6
:10291000288068800E98401E00B2A8800F98401E44
:1029200000B2E88011B0BDE8F08F0A21109890FB4A
:10293000F1FB0BF101000C900BEB8B011098A0EB5D
:1029400041000B900FFA8BF002F0E8F80A900C9817
:1029500000B202F0E3F809900BF15A0000B202F065
:10296000DDF808900C985A3000B202F0D7F80790C2
:102970000B98C0F10A020A9842430B99099800FB90
:1029800001200A2190FBF1F60B98C0F10A02089889
:1029900042430B99079800FB01200A2190FBF1F7B5
:1029A000B4F90000404200FB0AF0001200B2ADF89A
:1029B0000400B4F90200404200FB0AF0001200B229
:1029C000ADF80600B4F900100E98401A00FB0AF0AA
:1029D000001200B2ADF80800B4F902100F98401AC6
:1029E00000FB0AF0001200B2ADF80A00BDF9048045
:1029F000BDF9069007FB08F006FB1900218801EBE2
:102A0000E03000B2ADF8180006FB08F007FB090043
:102A1000618801EBE03000B2ADF81A00BDF9088022
:102A2000BDF9069007FB08F006FB1900218801EBB1
:102A3000E03000B2ADF8140006FB08F007FB090017
:102A4000618801EBE03000B2ADF81600BDF90480FA
:102A5000BDF90A9007FB08F006FB1900218801EB7D
:102A6000E03000B2ADF8100006FB08F007FB0900EB
:102A7000618801EBE03000B2ADF81200BDF90880CA
:102A8000BDF90A9007FB08F006FB1900218801EB4D
:102A9000E03000B2ADF80C0006FB08F007FB0900BF
:102AA000618801EBE03000B2ADF80E00BDF9100016
:102AB000BDF91810884202DABDF9100001E0BDF935
:102AC0001800BDF90C10BDF91420914202DABDF9CD
:102AD0000C1001E0BDF9141088420BDABDF91000AA
:102AE000BDF91810884202DABDF910000DE0BDF9F9
:102AF00018000AE0BDF90C00BDF91410884202DA92
:102B0000BDF90C0001E0BDF914002880BDF91000EA
:102B1000BDF91810884202DDBDF9100001E0BDF9D1
:102B20001800BDF90C10BDF91420914202DDBDF969
:102B30000C1001E0BDF9141088420BDDBDF9100046
:102B4000BDF91810884202DDBDF910000DE0BDF995
:102B500018000AE0BDF90C00BDF91410884202DD2E
:102B6000BDF90C0001E0BDF91400A880BDF9120008
:102B7000BDF91A10884202DABDF9120001E0BDF970
:102B80001A00BDF90E10BDF91620914202DABDF906
:102B90000E1001E0BDF9161088420BDABDF91200E3
:102BA000BDF91A10884202DABDF912000DE0BDF934
:102BB0001A000AE0BDF90E00BDF91610884202DACB
:102BC000BDF90E0001E0BDF916006880BDF91200E4
:102BD000BDF91A10884202DDBDF9120001E0BDF90D
:102BE0001A00BDF90E10BDF91620914202DDBDF9A3
:102BF0000E1001E0BDF9161088420BDDBDF9120080
:102C0000BDF91A10884202DDBDF912000DE0BDF9D0
:102C10001A000AE0BDF90E00BDF91610884202DD67
:102C2000BDF90E0001E0BDF91600E88000BF79E6AD
:102C30002DE9F74F86B0044620680590B4F90810D6
:102C40000798A0EB0108B4F90A100898A0EB010955
:102C5000E089B0F5807F13D1206B00FB08F0E16ABA
:102C600001FB1901606A00EBE11BE06A00FB08F060
:102C7000216B01FB0901A06A00EBE110049027E041
:102C8000A08960B9E08E08FB00F8E08E09FB00F92E
:102C9000606A00EB080BA06A4844049018E0E08EDC
:102CA00008FB00F8E08E09FB00F9206B00FB08F040
:102CB000E16A01FB1901606A00EBE13BE06A00FB9D
:102CC00008F0216B01FB0901A06A00EBE1300490E0
:102CD0004FEA2B2604980712B4F90400B04203DC33
:102CE000002009B0BDE8F08F002E01DA0020F8E7DF
:102CF000B4F90600B84201DC0020F2E7002F01DA47
:102D00000020EEE73420005DC0F3800050B3342093
:102D1000005DC0F3400078B90225B4F9040078439F
:102D2000684306FB050A059800EB0A012A4604F1F0
:102D3000140000F0D1FF2CE00325B4F9040078431F
:102D4000684306FB050A6A1E059800EB0A0104F1B8
:102D5000140000F0C1FF0AEB0500401E0599095C54
:102D6000A17516E04FF0000A0025208A03463AB20A
:102D700031B2019004F118000DF024FC0290BDF86E
:102D80000800A0823AB231B204F118000DF07AFBCB
:102D9000A0753420005D00F0010060B112480068A9
:102DA000029002980190A08ABDF80410884201D1D7
:102DB000002096E700BFE07C08B9012091E70FFAF8
:102DC0008BF12187049801B2618731B2A18739B2B2
:102DD000E187C4F840A084F84450204600F006F88B
:102DE000039003987DE70000F4A401082DE9F04F5B
:102DF0008DB00446D4F8009094F838000C9094F804
:102E00003A000B900C9870280BDA4FF0FF35B4F9AC
:102E10003C002844002800DA00250C988030C7B216
:102E200013E00C9890280EDD0125B4F93C002844ED
:102E3000B4F90410884200DB00250C98C0F1FF00B3
:102E40008030C7B201E00025FF270B9870280CDA0C
:102E50004FF0FF36B4F93E003044002800DA002677
:102E60000B98803000F0FF0815E00B9890280FDDDC
:102E70000126B4F93E003044B4F90610884200DB64
:102E800000260B98C0F1FF00803000F0FF0802E040
:102E900000264FF0FF08A08A0A90A07D069000202F
:102EA0000590049003903420005DC0F3800000285A
:102EB0005BD094F84400226C00FB052000EB090174
:102EC000022209A800F014FFA28894F8440012FB23
:102ED00000F2206C02FB060000EB0901022208A8A8
:102EE00000F006FFA28894F8440012FB00F2206C68
:102EF00002FB060294F8440000FB052000EB0901E8
:102F0000022207A800F0F4FE3420005DC0F3400068
:102F1000002876D094F84400216C00FB0511084489
:102F2000401E19F800000590A18894F8440011FB98
:102F300000F1206C01FB060194F844000844401E97
:102F400019F800000490A18894F8440011FB00F1E6
:102F5000206C01FB060194F8440000FB05110844B5
:102F6000401E19F8000003904BE0208A0090B4F94D
:102F70003E20A08F284401B204F11800009B0DF000
:102F800021FB0990208A0090E08F304402B2B4F90E
:102F90003C1004F11800009B0DF014FB0890208AEF
:102FA0000090E08F304402B2A08F284401B204F1B7
:102FB0001800009B0DF006FB07903420005DC0F365
:102FC0004000F0B1B4F93E20A08F284401B204F1D2
:102FD00018000DF057FA0590E08F304402B2B4F9B2
:102FE0003C1004F118000DF04DFA0490E08F3044CD
:102FF00002B2A08F284401B204F118000DF042FA89
:103000000390BA46BB463420005DC0F34000E0B3F5
:1030100006987843C7F1FF0C059B03FB0C00C0F337
:10302000072104987843C7F1FF0C039B03FB0C00B6
:10303000C0F3072201FB08F0C8F1FF0302FB030005
:10304000030AA375022905DC022A03DC00200DB067
:10305000BDE8F08F022901DC4FF00008022A01DCF4
:103060004FF0FF080698022801DC4FF0000A05988F
:10307000022801DC4FF0FF0A0498022801DC4FF01F
:10308000000B0398022803DC00E002E04FF0FF0B86
:1030900003E0BA46BB46FF21A175BAF1000F02D189
:1030A000099802900BE0BAF1FF0F02D10A98029042
:1030B00005E05246DDE909100AF07CFC0290BBF104
:1030C000000F02D1079801900BE0BBF1FF0F02D176
:1030D0000898019005E05A46DDE907100AF06AFCFD
:1030E0000190B8F1000F03D1BDF80400A0820FE0F9
:1030F000B8F1FF0F03D1BDF80800A08208E04246F6
:10310000DDE901100AF056FC0090BDF80000A08235
:1031100001209CE72DE9F05F0446B4F908000102A4
:103120006162B4F90A000102A162B4F90C000A213B
:1031300090FBF1F56F1CB4F90C0005EB8501A0EBD9
:103140004106684200B201F0E9FC8046784200B2D4
:1031500001F0E4FC8146C5F15A0000B201F0DEFC4A
:103160008246C7F15A0000B201F0D8FC8346C6F18E
:103170000A0000FB08F009FB06000A2190FBF1F1B0
:10318000E162C6F10A0000FB0AF00BFB06000A210F
:1031900090FBF1F12163A07C0DF08FFB3421095DE0
:1031A00060F3000134200155A07C0DF069FB34214F
:1031B000095D60F3410134200155A07C042805D04D
:1031C000A07C052802D0A07C062807D13420005D11
:1031D00020F00400001D3421085505E03420005D76
:1031E00020F004013420015521682162A06920F0FB
:1031F000E000A061A17CA06961F30400A061A18846
:10320000A06961F39420A061E188A06961F35F5037
:10321000A061E0894FF4803191FBF0F0E086FF215E
:10322000A175208AA082BDE8F09F00002DE9F34738
:1032300007465B48008810B90020BDE8FC87594864
:103240000668002414E004EBC40006EB8000006A6A
:10325000554988420ADD04EBC40006EB8000006A91
:10326000401E04EBC40106EB81010862601C84B2BD
:103270004B4800888442E6DB0025002442E04FF002
:10328000000904EBC40106EB810148680EF0BCFEA6
:103290008046B8F1000F12D104EBC40006EB8000A9
:1032A0004068B84219D104EBC40006EB80000089E5
:1032B000BDF80410884210D14FF001090DE0B8F1BB
:1032C000010F0AD104EBC40106EB810148683946BD
:1032D000FCF7C8FF08B94FF00109B9F1000F0FD092
:1032E00004EBC40006EB8005296A6869084428627B
:1032F000286AB0F57A7F02DD4FF47A70286205E023
:10330000601C84B2264800888442B8DB00BF002DD0
:1033100044D1354601240DE004EBC40006EB8000E7
:10332000006A296A884203DA04EBC40006EB8005D0
:10333000601C84B21A4800888442EDDB686810B1D2
:1033400028460DF0B1FF13F068FE81460020686149
:1033500039462846019A0EF009F88046B8F1000F68
:103360000FD128460DF0A0FF2021284600F012FDC5
:103370002421284600F00EFD4FF000402862002076
:103380005BE700202862686918B9484613F038FEE8
:103390006861686908B90120686100BF28464CE788
:1033A00038000020900000200100008010B510219E
:1033B000134800F005F90DF08BFF04466CB900BF0F
:1033C00020460AF016FD30B9224600230DA00AF06F
:1033D00017FD00BFFEE700BF10BD0E4920460EF0EE
:1033E00035F80D4920460EF033F80C4920460EF012
:1033F00031F80B4920460EF027F800BFECE700003B
:10340000502300204F7574206F66206D656D6F72BC
:10341000790000008F0A0108590F0108E111010825
:10342000550A010810B5002108460EF01DFE10BD1A
:103430002DE9FF4104460F4614B90AF0EBFD04469E
:103440000CB9BDE8FF811FB90020C4F86801F8E796
:103450000020ADF80800ADF80A0020460AF0EDFDA6
:10346000401E00B2ADF80C0020460AF04CFE401E93
:1034700000B2ADF80E0002AA39466846FEF788FE93
:103480000646002E45D0206918B1694620462269BB
:10349000904700250BE004F1480000EBC501002235
:1034A0006846FEF7B6FE00B1CBE7681C85B2B4F8FB
:1034B0006801C0F30900A842EDDCB4F86801C0F36C
:1034C000090020280BDAB4F86811C1F3090204F1ED
:1034D000480101EBC200694609F0D7FE0DE000206B
:1034E000C4F86801B4F86811C1F3090204F1480195
:1034F00001EBC20002A909F0C8FEB4F86801C0F3EC
:103500000900401CC4F868010321E06A13F0A6FC1E
:1035100000BF00BF95E72DE9F04107460C46154670
:103520001E462946384600F00EF9AEB10022294663
:10353000204614F091FB29462046626814F07EFB79
:10354000606820B12A462046616814F085FB6560FA
:10355000A068B0B9A56014E029462046A26814F01E
:103560007BFB00222946204614F068FBA06820B1AE
:103570002A462046A16814F061FBA560606800B986
:103580006560BDE8F0810146002001B148687047E0
:1035900002460AB9002070470B461068001D03441C
:1035A0001868F8E702460AB9002070470B46106811
:1035B00003441868F9E70146002001B188687047A4
:1035C000002242608260CA1C22F003010160704741
:1035D00070B50446216801F108000FF067FF054649
:1035E000A5B100222946204614F036FB2946204684
:1035F000626814F023FB606820B12A4620466168A7
:1036000014F02AFB6560A06800B9A560284670BD6B
:103610002DE9F04106460D4606B115B90020BDE87A
:10362000F0813046FFF7AFFFA84206D13046FFF7E2
:10363000CFFF044624BB0020F1E7316801F1080008
:103640000FF034FF04460CB90020E8E72946304665
:10365000FFF7A8FF074622463946304614F0EEFA37
:103660003A462146304614F0F7FA224629463046BB
:1036700014F0F2FA2A462146304614F0DFFA00BF71
:103680002046CCE770B50446216801F108000FF030
:103690000DFF0546A5B100222946204614F0CEFABA
:1036A00029462046A26814F0D7FAA06820B12A461D
:1036B0002046A16814F0C2FAA560606800B9656090
:1036C000284670BD014609B901207047486818B9FD
:1036D000886808B90120F8E70020F6E72DE9F041F5
:1036E00007460D461646B54201D1BDE8F0812EB120
:1036F00031463846FFF756FF044603E03846FFF7E9
:103700005AFF0446A54200D1EFE72946384600F0AB
:103710001AF82A462146384614F090FA22462946DD
:10372000384614F099FA2A463146384614F094FA8D
:1037300032462946384614F081FA06B9BD6004B90C
:103740007D6000BFD1E72DE9F04104460D462046DB
:10375000FFF719FFA8420FD129462046FFF718FFAF
:103760006060606810B90020A0602FE00022204651
:10377000616814F071FA29E02046FFF71CFFA842A7
:103780000FD129462046FFF70DFFA060A06810B9B1
:10379000002060601AE000222046A16814F04EFA72
:1037A00014E029462046FFF7FDFE0646294620463E
:1037B000FFF7EEFE07463A463146204614F03EFA41
:1037C00032463946204614F047FA00BFBDE8F08182
:1037D00010B5002406E00020114901EBC4018871F6
:1037E000601CC4B2022CF6D3002415E00D4850F83A
:1037F000340078B10B4951F834000FF0C3FE0020BB
:10380000084941F8340001EBC4018871054901EB16
:10381000C4018880601CC4B2102CE7DB10BD00001E
:10382000B40000206823002070B505460DB90020C3
:1038300070BD102D15D8002411E0444800EBC400E1
:10384000807900F0010040B90120404901EBC4013A
:1038500088713E4850F83400EAE7601CC4B2022C7C
:10386000EBD34FF0FF3600242CE0394800EBC400C6
:10387000807900F0010018BB354800EBC400808857
:10388000A8421DD3324800EBC4008088A84208D16A
:1038900001202F4901EBC40188712D4850F83400F4
:1038A000C6E7002E01DA66B20AE0294800EBC40040
:1038B0008088274901EBC6018988884200DA66B210
:1038C000601CC4B2102CD0DB002E08DB0120204984
:1038D00001EBC60188711E4850F83600A8E70024A5
:1038E0002AE01B4800EBC400807900F0010008BB0F
:1038F0000120174901EBC4018871154901EBC4018E
:103900008D80134951F8340029460FF07BFE104991
:1039100041F83400084650F8340038B900BF00229E
:1039200013460C480AF06CFA00BFFEE7084850F84E
:1039300034007DE7601CC4B2102CD2DB00BF002233
:10394000134605A00AF05CFA00BFFEE7B4000020B1
:1039500068230020004403084E6F206672656520CE
:103960006275666665722E20496E63726561736565
:10397000204C565F445241575F4255465F4D415877
:103980005F4E554D2E000000014600200CE0114A0C
:1039900052F830208A4205D100220E4B03EBC003BF
:1039A0009A717047421CD0B20228F0D300200CE07C
:1039B000094A52F830208A4205D10022064B03EB17
:1039C000C0039A71EDE7421CD0B21028F0DB00BFB3
:1039D000E7E70000B400002068230020014609B991
:1039E000002070470448814201D10020F9E70A1FF6
:1039F00010684008F5E70000AC00002009490A4AB9
:103A000011600021094A116007490868016821F026
:103A10000101016047F6FC72016862F35F01016019
:103A20007047000088240020A8000020B00000207B
:103A30002DE9F0410F46154601463A4601F00306CE
:103A400002F0030CB4457DD0C2E092F8008081F80A
:103A50000080491C521C92F8008081F80080491CAB
:103A6000521C92F8008081F80080491C521C92F888
:103A7000008081F80080491C521C92F8008081F877
:103A80000080491C521C92F8008081F80080491C7B
:103A9000521C92F8008081F80080491C521C92F858
:103AA000008081F80080491C521C92F8008081F847
:103AB0000080491C521C92F8008081F80080491C4B
:103AC000521C92F8008081F80080491C521C92F828
:103AD000008081F80080491C521C92F8008081F817
:103AE0000080491C521C92F8008081F80080491C1B
:103AF000521C92F8008081F80080491C521C92F8F8
:103B0000008081F80080491C521C92F8008081F8E6
:103B10000080491C521C92F8008081F80080491CEA
:103B2000521C92F8008081F80080491C521C92F8C7
:103B3000008081F80080491C521C92F8008081F8B6
:103B4000008000E053E0491C521C92F8008081F88C
:103B50000080491C521C92F8008081F80080491CAA
:103B6000521C92F8008081F80080491C521C92F887
:103B7000008081F80080491C521C92F8008081F876
:103B80000080491C521C92F8008081F80080491C7A
:103B9000521C92F8008081F80080491C521C92F857
:103BA000008081F80080491C521C92F8008081F846
:103BB0000080491C521C92F8008081F80080491C4A
:103BC000521C92F8008081F80080491C521C203D54
:103BD000202D3FF63AAF06E092F8008081F8008091
:103BE000491C521C6D1E002DF6D1BDE8F0816EB14E
:103BF000C6F1040607E092F8008081F80080491CB5
:103C0000521C761E6D1E0EB1002DF4D10B461446CB
:103C100030E0D4F80080C3F800801B1D241DD4F8C8
:103C20000080C3F800801B1D241DD4F80080C3F859
:103C300000801B1D241DD4F80080C3F800801B1DCC
:103C4000241DD4F80080C3F800801B1D241DD4F867
:103C50000080C3F800801B1D241DD4F80080C3F829
:103C600000801B1D241DD4F80080C3F800801B1D9C
:103C7000241D203D202DCCD806E0D4F80080C3F8C8
:103C800000801B1D241D2D1F042DF6D81946224629
:103C900006E092F8008081F80080491C521C6D1EDD
:103CA000002DF6D100BFA0E730B504460B4604E076
:103CB0001D782570641C5B1C521E002AF8D130BD93
:103CC00030B504460B4604E01D782570641C5B1C6F
:103CD000521E002AF8D130BD30B504460B4604E030
:103CE0001D782570641C5B1C521E002AF8D130BD63
:103CF00030B504460B4604E01D782570641C5B1C3F
:103D0000521E002AF8D130BD30B504460B4604E0FF
:103D10001D782570641C5B1C521E002AF8D130BD32
:103D2000F0B506460B46344604F003054DB1C5F127
:103D3000040503E02370641C521E6D1E0DB1002AA1
:103D4000F8D103EB032707EB034707EB036120469A
:103D500010E00160001D0160001D0160001D016098
:103D6000001D0160001D0160001D0160001D01605B
:103D7000001D203A202AECD802E00160001D121F2D
:103D8000042AFAD8044602E02370641C521E002A5A
:103D9000FAD1F0BD30B50446224602F0030353B118
:103DA000C3F1040304E000251570521C491E5B1E7C
:103DB0000BB10029F7D1104611E000250560001D68
:103DC0000560001D0560001D0560001D0560001DEB
:103DD0000560001D0560001D0560001D20392029BB
:103DE000EBD803E000250560001D091F0429F9D860
:103DF000024603E000251570521C491E0029F9D126
:103E000030BD30B50446224602F0030353B1C3F17E
:103E1000040304E0FF251570521C491E5B1E0BB104
:103E20000029F7D1104612E04FF0FF350560001D64
:103E30000560001D0560001D0560001D0560001D7A
:103E40000560001D0560001D0560001D203920294A
:103E5000EAD804E04FF0FF350560001D091F042972
:103E6000F8D8024603E0FF251570521C491E0029B0
:103E7000F9D130BD2DE9FE4F05460E4614462746C2
:103E80004FEA27294FF0000AA84626E0314640466F
:103E900010F01EFD00903146404610F08BFC83462A
:103EA00007EB0B2084B201AA2146009800F0A8FA83
:103EB0008246BAF1010F04D1BDF804100846BDE8EE
:103EC000FE8F09F0800000B90AE00EB1002604E080
:103ED000404610F019FC804600BFB8F1000FD5D164
:103EE00000BF24F4FE44292C02D02A2C08D100E083
:103EF00000BF064800680090BDF800100846DEE7E5
:103F000000200290BDF808100846D8E7F0A4010888
:103F10002DE9FC5F05460E46144627464FEA272941
:103F20004FF0000AA84625E03146404610F0D0FC8C
:103F300000903146404610F03DFC834607EB0B20D5
:103F400084B201AA2146009800F0A4FA8246BAF190
:103F5000010F03D1BDF90400BDE8FC9F09F080000A
:103F600000B90AE00EB1002604E0404610F0CCFB98
:103F7000804600BFB8F1000FD6D100BF24F4FE4444
:103F8000222C10D004DC032C09D0072C10D10CE01B
:103F9000312C02D0C02C0BD103E00F20DCE706202F
:103FA000DAE71020D8E7FF20D6E74FF48070D3E798
:103FB0000020D1E72DE9FC5F05460E461446274652
:103FC0004FEA27294FF0000AA84625E0314640462F
:103FD00010F07EFC00903146404610F0EBFB83462B
:103FE00007EB0B2084B201AA2146009800F09CFA4E
:103FF0008246BAF1010F03D19DF80400BDE8FC9F91
:1040000009F0800000B90AE00EB1002604E0404645
:1040100010F07AFB804600BFB8F1000FD6D100BF88
:1040200024F4FE442C2C06D06D2C06D0A4F50040C0
:10403000AD3820B900E000BF00BF0020DEE7FF2060
:10404000DCE700002DE9FC5F05460E4614462746D6
:104050004FEA27294FF0000AA84624E0314640469F
:1040600010F036FC00903146404610F0A3FB83462A
:1040700007EB0B2084B201AA2146009800F09EFABB
:104080008246BAF1010F02D10198BDE8FC9F09F008
:10409000800000B90AE00EB1002604E0404610F0AE
:1040A00033FB804600BFB8F1000FD7D100BF24F426
:1040B000FE447E2C06D0BE2C07D0A4F500408E38DE
:1040C00028B900BF12F018FFDFE70248DDE7002043
:1040D000DBE70000F0E201082DE9FF4105460E464E
:1040E00014463146284610F0F3FB07462146384671
:1040F000039A00F056FB002322463146284616F06C
:1041000097F924F4FE41284611F0E8F9BDE8FF8153
:1041100001480068704700002C000020704730B54F
:104120000002002300BF9C1804FB04F5854200D860
:1041300023465208002AF6D1C3F30F150D801D0740
:104140002D0E4D8030BD2DE9F04705460E46174631
:10415000B8461DB94FF0FF30BDE8F087286810B9A8
:104160004FF0FF30F8E73146284607F0A7FD044638
:10417000002C02DA4FF0FF30EEE7A01C2A6811187D
:1041800002224046FFF79CFD2146284607F0DFFD4E
:1041900081464FEA162A0AF07F0000EA0900DBE7B1
:1041A0002DE9F04705460E461746B8461DB94FF0B3
:1041B000FF30BDE8F087286810B94FF0FF30F8E70E
:1041C0003146284607F07AFD0446002C02DA4FF00B
:1041D000FF30EEE7A01C2A68111802224046FFF7C4
:1041E0006FFD2146284607F0B2FD81464FEA162AA8
:1041F0000AF07F0000EA0900DBE770B50546286891
:1042000008B9002070BD002404E02146304607F0C4
:104210003BFD04462146284607F0A2FD0646FF283E
:10422000F3D1A01C80B2EDE72DE9F04705460E461C
:104230001746B8461DB94FF0FF30BDE8F087286833
:1042400010B94FF0FF30F8E73146284607F036FD49
:104250000446002C02DA4FF0FF30EEE7A01C2A687B
:10426000111801224046FFF72BFD2146284607F092
:104270006EFD81464FEA162A0AF07F0000EA090027
:10428000DBE72DE9F04705460E461746B8461DB94F
:104290004FF0FF30BDE8F087286810B94FF0FF30CD
:1042A000F8E73146284607F009FD0446002C02DAFB
:1042B0004FF0FF30EEE7A01C2A6811180422404698
:1042C000FFF7FEFC2146284607F041FD81464FEAF4
:1042D000162A0AF07F0000EA0900DBE72DE9F04129
:1042E000044688460CB9BDE8F0814146204600F0FE
:1042F000B5F9207920B904200FF0D8F8054606E07A
:104300002279521C910020680FF07CF9054600BF0D
:10431000284609F06EFD30B92A46002313A009F0A3
:104320006FFD00BFFEE700BF05B9DCE7002760793D
:10433000C0F3400008B1781CC7B2607900F00100FA
:1043400008B1781CC7B2267906E0701E55F8200027
:1043500045F82600701EC6B2BE42F6DC45F827803E
:104360002079401C2071256000BFBCE74F75742088
:104370006F66206D656D6F727900000070B5044640
:104380006079C0F3400018B1204600F05CF970BDC0
:1043900004200FF08BF8054600BF284609F029FDE0
:1043A00030B92A46002312A009F02AFD00BFFEE71B
:1043B00000BF0DB90020EAE7284612F0ACF8294604
:1043C0002046FFF78BFF607920F00200801C6071AF
:1043D000607900F0010040B12168086821684968EF
:1043E000226811602168486000BF2846CFE70000BE
:1043F0004F7574206F66206D656D6F7279000000D7
:104400002DE9FC5F04468A46164614B90020BDE833
:10441000FC9F206808B90020F9E74FEA2A2BD8460C
:104420004FF0FF3900200190002529E0E9B2204635
:1044300012F0F3F8009001AA51460098FFF783FEAE
:104440000746474504D1BDF8040030800120DEE76F
:104450006079C0F3400058B1002F09DB45B960799D
:10446000C0F3800020B9BDF8040030800120CEE701
:104470004F4503DDB946BDF804003080681C05B225
:104480002079A842D2DCB9F1000F01DB0120BEE7A0
:104490000020BCE72DE9FC5F04468A46164614B9A5
:1044A0000020BDE8FC9F206808B90020F9E74FEA2A
:1044B0002A2BD8464FF0FF3900200190002529E033
:1044C000E9B2204612F0A9F8009001AA51460098DE
:1044D000FFF766FE0746474504D1BDF9040030806A
:1044E0000120DEE76079C0F3400058B1002F09DBFE
:1044F00045B96079C0F3800020B9BDF9040030806F
:104500000120CEE74F4503DDB946BDF904003080F8
:10451000681C05B22079A842D2DCB9F1000F01DB9A
:104520000120BEE70020BCE72DE9FC5F04468A4677
:10453000164614B90020BDE8FC9F206808B9002089
:10454000F9E74FEA2A2BD8464FF0FF3900200190B7
:10455000002529E0E9B2204612F05FF8009001AA98
:1045600051460098FFF760FE0746474504D19DF885
:10457000040030700120DEE76079C0F3400058B1DC
:10458000002F09DB45B96079C0F3800020B99DF8A0
:10459000040030700120CEE74F4503DDB9469DF899
:1045A00004003070681C05B22079A842D2DCB9F151
:1045B000000F01DB0120BEE70020BCE72DE9FC5F16
:1045C00004468A46164614B90020BDE8FC9F2068C0
:1045D00008B90020F9E74FEA2A2BD8464FF0FF39F7
:1045E000002526E0E9B2204612F017F8009001AA53
:1045F00051460098FFF745FE0746474503D101980D
:1046000030600120E1E76079C0F3400050B1002F35
:1046100008DB3DB96079C0F3800018B901983060BB
:104620000120D2E74F4502DDB94601983060681C91
:1046300005B22079A842D5DCB9F1000F01DB0120D9
:10464000C3E70020C1E701464879C0F3400008B93C
:104650000020704708680068FBE700002DE9F0477C
:1046600004460F46207908B9BDE8F0874FF00009ED
:10467000002509E0206850F82500B84202D14FF02B
:10468000010904E0681CC5B22079A842F2DC00BF31
:10469000B9F1000F00D1E7E7207901280AD120689D
:1046A0000EF070FF002020602071607920F0010082
:1046B0006071D9E72279521E910020680EF0A2FFA6
:1046C000064600BF304609F094FB30B9324600235D
:1046D00012A009F095FB00BFFEE700BF06B9C3E7D3
:1046E0000025A84611E0206850F82500B84200D106
:1046F00009E0206850F8250046F8280008F101007C
:1047000000F0FF0800BF681CC5B22079A842EADCAF
:104710002079401E2071266000BFA5E74F757420E8
:104720006F66206D656D6F727900000070B504468C
:1047300004B970BD607900F0010058B1204611F055
:104740005BFF05462DB1284611F0BFFF28460EF04D
:1047500019FF00BF6079C0F3400058B12046FFF751
:1047600072FF05462DB1284611F0AFFF28460EF026
:1047700009FF00BF2079002802DD20680EF002FF4B
:10478000002020602071607920F001006071607964
:1047900020F002006071607920F00400607100BFB9
:1047A000C7E7F7B504460D46204607F0CBF80646A6
:1047B00029463046029A00F001F8FEBD2DE9F74780
:1047C00081B00546BDF80810284607F077FA07467D
:1047D000002F17DB3946284607F0B9FA8146BDF8A5
:1047E00008004FEA102A4FEA4960B0EB4A6F08D13F
:1047F00029683944881C022203A9FFF761FABDE841
:10480000FF8700BF4FF00408FF20009002262846D3
:10481000FFF7F3FC04460CB9A01984B2201D84B242
:104820002146284614F09EF800BF286809F0E1FAF6
:1048300038B929680A46002310A009F0E1FA00BF40
:10484000FEE700BF05B9DAE729682144A1EB0801BA
:10485000881B022202A9FFF733FA29682144891E26
:10486000881B022203A9FFF72BFA29682144881B21
:1048700002226946FFF724FA00BFC0E74F75742093
:104880006F66206D656D6F72790000002DE9F74746
:1048900081B00546BDF80810284607F00FFA074614
:1048A000002F17DB3946284607F051FA8146BDF83C
:1048B00008004FEA102A4FEA4960B0EB4A6F08D16E
:1048C00029683944881C022203A9FFF7F9F9BDE8D9
:1048D000FF8700BF4FF00408FF2000900226284603
:1048E000FFF78BFC04460CB9A01984B2201D84B2DA
:1048F0002146284614F036F800BF286809F079FAF6
:1049000038B929680A46002310A009F079FA00BFD7
:10491000FEE700BF05B9DAE729682144A1EB0801E9
:10492000881B022202A9FFF7CBF929682144891EBE
:10493000881B022203A9FFF7C3F929682144881BB9
:1049400002226946FFF7BCF900BFC0E74F7574202B
:104950006F66206D656D6F72790000002DE9F74775
:1049600081B00546BDF80810284607F0A7F90746AC
:10497000002F17DB3946284607F0E9F98146BDF8D4
:1049800008004FEA102A4FEA4960B0EB4A6F08D19D
:1049900029683944881C012203A9FFF791F9BDE871
:1049A000FF8700BF4FF00308FF2000900226284633
:1049B000FFF723FC04460CB9A01984B2E01C84B2B2
:1049C0002146284613F0CEFF00BF286809F011FAEF
:1049D00038B929680A46002310A009F011FA00BF6F
:1049E000FEE700BF05B9DAE729682144A1EB080119
:1049F000881B022202A9FFF763F929682144491E96
:104A0000881B012203A9FFF75BF929682144881B51
:104A100002226946FFF754F900BFC0E74F757420C2
:104A20006F66206D656D6F72790000002DE9F747A4
:104A300081B00546BDF80810284607F03FF9074643
:104A4000002F17DB3946284607F081F98146BDF86B
:104A500008004FEA102A4FEA4960B0EB4A6F08D1CC
:104A600029683944881C042203A9FFF729F9BDE805
:104A7000FF8700BF4FF00608FF200090022628465F
:104A8000FFF7BBFB04460CB9A01984B2A01D84B289
:104A90002146284613F066FF00BF286809F0A9F9EF
:104AA00038B929680A46002310A009F0A9F900BF07
:104AB000FEE700BF05B9DAE729682144A1EB080148
:104AC000881B022202A9FFF7FBF829682144091F6D
:104AD000881B042203A9FFF7F3F829682144881BE7
:104AE00002226946FFF7ECF800BFC0E74F7574205B
:104AF0006F66206D656D6F727900000010B518212A
:104B00000448FEF75DFD002003490870012012F003
:104B10006FF810BDFC220020CB00002001460020D1
:104B20004FF4B47291FBF2F302FB1311002902DA85
:104B300001F5B47211B25A2903DA134A32F911009D
:104B400020E05A2908DBB42906DAC1F1B40211B217
:104B50000D4A32F9110015E0B4290BDBB1F5877F5E
:104B600008DAA1F1B40211B2074A32F81120524218
:104B700010B207E0C1F5B47211B2034A32F8112045
:104B8000524210B2704700000CE301082DE9F043D7
:104B900087B00446884691461F460E9D1CB90020EA
:104BA00007B0BDE8F083B8F1000F01D10020F7E7AE
:104BB00005F0020010B905F0100078B1002000E007
:104BC000401C215C0A2905D0215C0D2902D0215C02
:104BD0000029F5D1215C01B1401CE1E705F002009C
:104BE00008B147F6184700200690059037E00020EE
:104BF0000490059808B9012000E0002006A904AA45
:104C0000CDE90052CDE90210059960183B464A46AD
:104C1000414612F007FA06460498381A07B23EB920
:104C2000059820B905A92046144A126890471BE050
:104C300005983044059020780A2802D020780D2865
:104C400000D111E00598205C0A2803D00598205C6B
:104C50000D2803D10598401C059005E000BF05987C
:104C6000205C08B1002FC2DC00BF059820B905A95F
:104C70002046024A12689047059891E7EC00002010
:104C80002DE9FF4F83B004460E469046DDF848B04C
:104C9000DDF8409000202080608016B907B0BDE8A4
:104CA000F08FB8F1000F00D1F8E70BF0020010B15F
:104CB00047F6184011900025AA4600BFB8F8080032
:104CC00087B22EE07019CDF800B04146119B069ACC
:104CD000FFF75CFF8244B4F9020038444844B0F561
:104CE000004F00D3DAE76088384400B26080608803
:104CF000484400B26080AAEB05017019CDF800B0FD
:104D00004246069B00F02CF80290B4F9001002987D
:104D1000814201DA029801E0B4F900002080554692
:104D200000BF705D0028CDD16DB1681E305C0A28CF
:104D300003D0681E305C0D2805D1608807EB09019F
:104D4000084400B26080608810B938B2608004E026
:104D50006088A0EB090000B2608000BF9EE7000001
:104D60002DE9FE4F05460E4617469846DDF830A061
:104D700015B90020BDE8FE8F0FB90020FAE700202A
:104D80000290002401907EB326E002A92846174A2B
:104D9000126890470090029968180021134A12681F
:104DA000904783460AF0010028B101A8009900F05D
:104DB0001FF800B110E05A46384600990BF076F91A
:104DC0000FFA80F9B9F1000F05DD04EB090004B218
:104DD00004EB080004B200BF0298B042D5D3002C07
:104DE00002DDA4EB080004B22046C3E7EC0000207B
:104DF000024600200FA31B788B4211D113781BB9F8
:104E00000123137001200BE01378012B02D1002342
:104E1000137005E01378022B02D1002313700120D8
:104E20001378012B04D1202901D102231370012012
:104E300070470000230000002DE9F04781460E4630
:104E400014461F46DDF820A035461BE0600800FB35
:104E5000075529464846D047B0F1000809DD04F05F
:104E6000010080F00100C0EB5404E8190546064635
:104E700008E0B8F1000F02DA6408354602E028467F
:104E8000BDE8F087002CE1D10020F9E710B5012042
:104E9000084908700848FEF776FB28B90021074842
:104EA000006811F0DBFF04E004210448006811F001
:104EB000D5FF10BD88000020382300208C00002082
:104EC00010B590B0044694F83C0000F0010050B9D1
:104ED000A08E002807DDA08E4FF6FF71884202D019
:104EE000A08E401EA086A08EE0B9E06A30B1E06AD4
:104EF000C0B194F83C0000F0010098B14022214676
:104F00006846FEF795FD21461A48FEF71CFC204630
:104F10000EF038FBFFF7BAFF039810B1684603990B
:104F2000884723E0206B40426062E06AF0B194F869
:104F30003C1001F0010111B9A16A4942616294F883
:104F40003C10C94394F83C2061F3000284F83C20F3
:104F5000A069E169A161E06194F83C1001F00101F0
:104F600009B9A16B00E0E16A216200BF0248007844
:104F700010B010BD38230020880000202DE9F0413A
:104F800080463948FEF7FFFA044608E0E06B20F05F
:104F90000200E06321463448FEF7FAFA0446002C8A
:104FA000F4D13248006812F02BF806462E48FEF77E
:104FB000EAFA044650E000202D49087094F83C00BD
:104FC000C0F3400000283AD1E06B20F00200801CC2
:104FD000E063606A8719606A002806DC002F04DB42
:104FE000A06810B12046A1688847606A30446062BA
:104FF000606A002822DBD4E90810884201DD206ABB
:105000006062206930B1214604F1100022699047A6
:10501000054605E0214604F1100008F097F8054622
:10502000606818B129B2D4E900029047D4E90810A9
:10503000884202DB2046FFF743FF00BF00BF0C4859
:10504000007820B10848FEF79EFA044604E02146A5
:105050000548FEF79DFA0446002CACD111F0DDFFA7
:1050600002490860BDE8F081382300208400002058
:105070008800002038B53D4800681C3013F062FC01
:105080003B4800214268394800681C3011F083FB1E
:10509000002008F0C5FF00EBC00101EB001050300C
:1050A000A02190FBF1F001280BDD002008F0B8FFF3
:1050B00000EBC00101EB00105030A02190FBF1F09B
:1050C00000E0012004B222460021284800681C307C
:1050D00011F078FB01220021244800681C3011F0F7
:1050E00065FB22480068203013F02CFC2048007E2D
:1050F00000F0020020B11F4808F0FDF9009003E025
:105100001D4808F0F8F9009000211848009A00683E
:10511000203011F040FB002008F082FF00EBC001BE
:1051200001EB00105030A02190FBF1F001280BDDC5
:10513000002008F075FF00EBC00101EB00105030BB
:10514000A02190FBF1F000E0012004B222460021F2
:1051500006480068203011F035FB01220021034889
:105160000068203011F022FB38BD0000040100204F
:1051700088A40020D9D7D4004D4945000EB55A481F
:105180000068243013F0DEFB47F6FF72002156481A
:105190000068243011F08DFBFF2200215248006886
:1051A000243011F0A5FA5148007E00F0020020B131
:1051B0004F4808F0A0F9009003E04E4808F09BF932
:1051C000009000214848009A0068243011F085FAC8
:1051D0004948006802904548007E00F0020020B176
:1051E000464808F088F9009001E0029800900021FC
:1051F0003D48009A0068243011F01AFC3B48002119
:10520000426839480068243011F0E8FA3748C0880D
:1052100002460421009034480068243011F0DEFA80
:105220000022114630480068243011F0E2FA7F2253
:1052300002212D480068243011F0DBFA03220021FE
:1052400029480068243011F0ECFA96220021264803
:105250000068243011F0E0FB4C2200212248006855
:10526000243011F0CDFB20480068283013F06AFB91
:10527000FF2200211C480068283011F039FA47F657
:10528000FF72002118480068283011F012FB1748FF
:105290000021426814480068283011F01EFA40F6D8
:1052A000880008F036F90246202100900E48006878
:1052B000283011F012FA1048001D006801900B48C8
:1052C000007E00F0020020B10D4808F014F90090B3
:1052D00001E00198009000210348009A00682830FE
:1052E00011F0A6FB0EBD00000401002088A40020E0
:1052F000D9D7D4004D494500C4E301084F403100DF
:105300004F404100FEB5FA48006813F01BFBFF2236
:105310000021F748006811F0EBF9F648007E00F034
:10532000020020B1F44808F0E6F8029003E0F348E8
:1053300008F0E1F802900021ED48029A006811F0AF
:10534000CCF9EC48007E00F0020020B1EC4808F0F7
:10535000D2F8029003E0EB4808F0CDF8029000216B
:10536000E348029A006811F001FBE248007E00F079
:10537000020020B1E24808F0BEF8029003E0E148E4
:1053800008F0B9F802900021D948029A006811F09B
:105390004FFBD8480021C268D548006811F0F2FAE6
:1053A000D4480021C268D248006811F04CFBD048B4
:1053B0000068001D13F0C6FA002008F031FE5021ED
:1053C00001EBC000A02190FBF1F0012809DD0020D5
:1053D00008F026FE502101EBC000A02190FBF1F067
:1053E00000E0012005B22A460021C1480068001DE6
:1053F00011F05FFAFF220021BD480068001D11F086
:1054000077F9BC48007E00F0020028B16FF07F40C1
:1054100008F071F8029003E0BB4808F06CF80290C5
:105420000021B348029A0068001D11F056F9B148F6
:10543000007E00F0020020B1B44808F05CF8029051
:1054400003E0B34808F057F802900021A848029AF8
:105450000068001D11F058F9A64802214268A448CE
:105460000068001D11F050F9A248C08802460421CE
:1054700002909F480068001D11F046F9002008F0D6
:10548000CFFD502101EB4000A02190FBF1F001285D
:1054900009DD002008F0C4FD502101EB4000A021EF
:1054A00090FBF1F000E0012005B22A46002190486F
:1054B0000068001D11F04BF98D480068051D00269D
:1054C0000127332040EA06213A462846FFF7DEF955
:1054D00000BF88480021C26885480068001D11F09F
:1054E00051FA8448007E00F0020020B1844808F0A0
:1054F00002F8029004E06FF07F4007F0FCFF02909A
:1055000000217B48029A0068001D11F02FFA7948AB
:105510000021C26876480068001D11F094FA7548B1
:10552000007E00F0020020B1754807F0E4FF029011
:1055300004E06FF07F4007F0DEFF029000216C482E
:10554000029A0068001D11F073FA6A48007E00F0AC
:10555000020020B16A4807F0CEFF029004E06FF02D
:105560007F4007F0C8FF029000216148029A00685E
:10557000001D11F004F95F48007E00F0020020B128
:105580005F4807F0B8FF029004E06FF07F4007F03B
:10559000B2FF029000215648029A0068001D11F0E7
:1055A000FAF80122002152480068001D11F00AF9A2
:1055B000002008F084FD012816DC002008F030FDF2
:1055C000C0EB00105030A02190FBF1F0012809DD64
:1055D000002008F025FDC0EB00105030A02190FB0A
:1055E000F1F61BE0012619E0002008F019FDC0EBE0
:1055F0000010502101EB4000A02190FBF1F00128A8
:105600000BDD002008F00CFDC0EB0010502101EB79
:105610004000A02190FBF1F600E00126002008F0F8
:10562000FFFC502101EB4000A02190FBF1F001288C
:1056300009DD002008F0F4FC502101EB4000A0211E
:1056400090FBF1F000E00120304405B22A46002131
:1056500027480068001D11F008F9002008F02FFD10
:10566000012816DC002008F0DBFCC0EB00105030F5
:10567000A02190FBF1F0012809DD002008F0D0FC0A
:10568000C0EB00105030A02190FBF1F61BE001268A
:1056900019E0002008F0C4FCC0EB0010502101EB21
:1056A0004000A02190FBF1F001280BDD002008F064
:1056B000B7FCC0EB0010502101EB4000A02190FB93
:1056C000F1F600E00126002008F0AAFC502101EBD1
:1056D0004000A02190FBF1F001281BDD002008F024
:1056E0009FFC502101EB4000A02190FBF1F012E063
:1056F0000401002088A40020F3EFEA005A4B440084
:10570000423E3B00ECE9E70073625800E3DDD6005F
:10571000978A80000120304405B22A460021FE48C5
:105720000068001D11F0ADF8002008F0C8FC012849
:1057300016DC002008F074FCC0EB00105030A021F3
:1057400090FBF1F0012809DD002008F069FCC0EBB6
:1057500000105030A02190FBF1F61BE0012619E06B
:10576000002008F05DFCC0EB0010502101EB400070
:10577000A02190FBF1F001280BDD002008F050FC87
:10578000C0EB0010502101EB4000A02190FBF1F68E
:1057900000E00126002008F043FC502101EB40000E
:1057A000A02190FBF1F0012809DD002008F038FC71
:1057B000502101EB4000A02190FBF1F000E001201E
:1057C000304405B22A460021D3480068001D11F07C
:1057D00064F8002008F073FC012816DC002008F0B3
:1057E0001FFCC0EB00105030A02190FBF1F001280D
:1057F00009DD002008F014FCC0EB00105030A0219F
:1058000090FBF1F61BE0012619E0002008F008FCEF
:10581000C0EB0010502101EB4000A02190FBF1F003
:1058200001280BDD002008F0FBFBC0EB001050212D
:1058300001EB4000A02190FBF1F600E001260020E2
:1058400008F0EEFB502101EB4000A02190FBF1F0AD
:10585000012809DD002008F0E3FB502101EB4000A6
:10586000A02190FBF1F000E00120304405B22A466F
:105870000021A9480068001D10F0DFFF002008F09B
:105880001EFC012816DC002008F0CAFBC0EB00104B
:105890005030A02190FBF1F0012809DD002008F034
:1058A000BFFBC0EB00105030A02190FBF1F01BE0DB
:1058B000012019E0002008F0B3FBC0EB00105021DC
:1058C00001EB4000A02190FBF1F001280BDD00204E
:1058D00008F0A6FBC0EB0010502101EB4000A02116
:1058E00090FBF1F000E0012005B22A4600218A4831
:1058F0000068001D10F0ADFF962200218648006868
:10590000001D11F089F83922002183480068001D2C
:1059100011F076F8804800680C3013F013F87E48D8
:105920000168091D00680C3010F0DEFD7B48007E28
:1059300000F0020020B17A4807F0DDFD029003E09C
:10594000784807F0D8FD029000217348029A006859
:105950000C3010F0C2FE7148007E00F0020020B151
:10596000714807F0C8FD029003E0704807F0C3FDDE
:10597000029000216848029A00680C3010F0C4FEC2
:105980006648007E00F0020020B1694807F0B3FDD0
:10599000029003E0674807F0AEFD029000215E48E8
:1059A000029A00680C3010F0E1FF5C48007E00F0C5
:1059B000020020B15E4807F09EFD029003E05D48C2
:1059C00007F099FD029000215348029A00680C30BC
:1059D00011F02EF85148007E00F0020020B154482A
:1059E00007F089FD029003E0524807F084FD029021
:1059F00000214948029A00680C3010F0C0FE474868
:105A0000007E00F0020020B1494807F074FD0290CA
:105A100003E0484807F06FFD029000213E48029ADB
:105A200000680C3010F0B7FE3B480068083012F0F8
:105A300089FF3A48007E00F0020020B13E4807F09E
:105A40005AFD029003E03D4807F055FD02901021F9
:105A50003148029A0068083010F03FFE2F480121BB
:105A600042682D480068083010F037FE33212B487B
:105A7000406807F0DBFC02461121029026480068CE
:105A8000083010F02AFE2548007E00F0020028B100
:105A90006FF07F4007F02FFD029003E0284807F0E9
:105AA0002AFD029020211C48029A0068083010F05C
:105AB00014FE0022012118480068083010F047FE4B
:105AC00033211648406807F0B1FC024612210290CB
:105AD00011480068083010F017FE1048007E00F0F2
