:020000040800F2
:10000000A07E0120B10100088F1700080D14000820
:100010008D17000815030008F919000800000000FA
:10002000000000000000000000000000511900085E
:10003000D1030008000000009117000853190008C0
:10004000CB010008CB010008CB010008CB01000860
:10005000CB010008CB010008CB010008CB01000850
:10006000CB010008CB010008CB010008CB01000840
:10007000CB010008CB010008CB010008CB01000830
:10008000CB010008CB010008CB01000800000000F4
:10009000000000000000000000000000CB0100088C
:1000A000CB010008CB010008CB010008CB01000800
:1000B000CB010008CB010008CB010008CB010008F0
:1000C000CB010008CB010008CB0100089517000800
:1000D000CB010008CB010008CB01000800000000A4
:1000E000CB010008CB010008CB0100080000000094
:1000F000000000000000000000000000CB0100082C
:1001000000000000CB010008CB010008CB01000873
:1001100000000000000000000000000000000000DF
:10012000CB010008CB01000819030008CB0100082F
:10013000CB010008000000000000000000000000EB
:10014000000000000000000000000000CB010008DB
:10015000CB010008CB010008CB010008CB0100084F
:10016000CB010008CB0100080000000000000000E7
:10017000000000000000000000000000000000007F
:1001800000000000CB01000800000000000000009B
:10019000CB010008CB010008DFF810D000F0A8F870
:1001A000004800479B200108AFF30080A07E01209B
:1001B0000648804706480047FEE7FEE7FEE7FEE701
:1001C000FEE7FEE7FEE7FEE7FEE7FEE7E9190008C7
:1001D000990100082DE9F05F0546002092469B46F4
:1001E00088460646814640241BE02846414647464D
:1001F000224600F06CF853465A46C01A914110D37B
:1002000011461846224600F053F82D1A67EB0108F4
:100210004F4622460120002100F04AF817EB000962
:100220004E41201EA4F10104DFDC484631462A4637
:100230004346BDE8F09FD2B201E000F8012B491E11
:10024000FBD270470022F6E710B513460A46044673
:100250001946FFF7F0FF204610BD421C10F8011BA5
:100260000029FBD1801A704710B5002200E0521C13
:10027000835C8C5CA34201D1002BF8D1D8B2E1B2EF
:10028000401A10BD30B504460020034600E05B1C58
:10029000934203D2E05CCD5C401BF8D030BD0346F6
:1002A00011F8012B00F8012B002AF9D118467047EC
:1002B000202A04DB203A00FA02F100207047914026
:1002C000C2F1200320FA03F3194390407047202A1B
:1002D00004DB203A21FA02F00021704721FA02F3F0
:1002E000D040C2F1200291400843194670470000F7
:1002F000064C074D06E0E06840F0010394E8070073
:1003000098471034AC42F6D3FFF74AFFE8E50208FD
:1003100008E60208FEE7000010B5034800F06EF89A
:10032000BDE8104014F09EB9640100200168182354
:10033000CAB2103AB2FBF3F2054B6FF30901032A7C
:100340009B5CC36500D9091D8165084670470000A4
:100350007846010810B5014600208B698A6A4FF083
:10036000C07453B1B3F5005F15D072B1012A0CD03F
:10037000022A0AD0032A09D104E01AB1012A06D0C0
:10038000022A03D1C96AC90100D5012010BDC96A7A
:10039000A142FAD010BD002AF7D0012AF2D0022AD9
:1003A000F3D0032AF3D010BD30B50468256825F4D6
:1003B00080252560046863608368402B036803D050
:1003C00099600068C26030BD9A600068C16030BD4D
:1003D000704772B6FEE790F83510022903D08021ED
:1003E000416501207047052180F8351000680168DB
:1003F00021F0010101600020704700002DE9F84361
:1004000004464FF00009CDF8009063484FF41651B0
:10041000A56D0068B0FBF1F72E6894F85C10082019
:1004200000FA01F131420FD021680A6852070BD55A
:100430000A6822F004020A6094F85C108840A86000
:10044000606D40F00100606594F85C104FF00108A9
:1004500008FA01F0304208D021684969090604D53C
:10046000A860606D40F00200606594F85C100420A4
:100470008840304208D021680968890704D5A860FF
:10048000606D40F00400606594F85C1010208840B6
:10049000304218D021680968090714D5A86020687F
:1004A0000168490304D50068000308D5A16C07E082
:1004B0000168C90503D4016821F008010160216CBD
:1004C00009B12046884794F85C10202088403042CB
:1004D00031D021680968C9062DD5A86094F8350087
:1004E00005282068016806D0490347D50068000345
:1004F0001DD4616C1CE021F0160101602068416987
:1005000021F080014161206C08B9A06C20B1206805
:10051000016821F00801016094F85C103F208840D8
:10052000A86084F8358084F83490216D1FE0E16B79
:1005300009B120468847606D00282BD0606DC00748
:1005400014D0052084F835002068016821F00101ED
:1005500001600098401C0090B84203D820680068F1
:10056000C007F6D184F8358084F83490E16C002916
:1005700010D001B02046BDE8F04308470168C90526
:10058000D5D4016821F01001016084F8358084F829
:100590003490CCE7BDE8F883100000202DE9F0414D
:1005A000044600F0A5F906465CB1022084F8350047
:1005B000002584F834502068016821F001010160B1
:1005C0000DE00120BDE8F08100F092F9801B0528C4
:1005D00005D920206065032084F83500F2E7206803
:1005E0000068C007F0D12268116820480140D4E9B2
:1005F00001031843D4E903363343184363691843AE
:10060000A3691843E3691843236A18430843616ADE
:10061000042903D1D4E90B1319430843106020685F
:100620004069666A20F0070130460E43012704281E
:100630000CD1A06A0643E06A40B12046FFF78AFE6B
:1006400020B14020606584F83570BAE720684661C3
:100650002046FFF76BFE94F85C203F2191408160BB
:10066000656584F835700020ACE700003F8010F02D
:100670002DE9F0410446866D90F8340000250128EC
:100680000DD0012084F8340094F835700020012F3B
:1006900007D084F8340002252846BDE8F081022006
:1006A000FBE7022784F8357060652046FFF77CFE83
:1006B00094F85C103F208840B0602068016841F0E9
:1006C00016010160206C20B12068016841F008012A
:1006D00001602068016841F001010160DCE7000071
:1006E00070B5044600F004F90546601C02D00448C9
:1006F0000078044400F0FCF8401BA042FAD370BD1F
:10070000040000202DE9F84FDFF8B8A100220124F1
:100710000AF1040B03254FF00F090BF1040E00BF83
:100720000B6804FA02F63340B34273D10F7907F035
:100730000307012F01D0022F16D187684FEA420824
:1007400005FA08FC27EA0C07D1F80CC00CFA08FCE3
:100750004CEA070CC0F808C04768B7430E79C6F3E7
:10076000001696403E4346600E79F643B6070DD01C
:10077000C768560005FA06FC27EA0C07D1F808C03E
:100780000CFA06FC4CEA070CC0F80CC00E7906F017
:100790000306022E10D1D60800EB8608D8F8206098
:1007A00057074FEAD76C09FA0CF7BE430F6907FAEF
:1007B0000CF73743C8F8207006684FEA420C05FA78
:1007C0000CF7BE430F7907F0030707FA0CF737431E
:1007D00007604E6816F4403F6DD03B4E376847F4D3
:1007E00080473760366822F0030706F4804600969B
:1007F000364E07EB060CDCF8086897073F0F09FA3E
:1008000007F826EA0806DFF8C880404503D14FF014
:1008100000081EE04FE0DFF8BC80404502D14FF0F9
:10082000010816E0DFF8B080404502D14FF0020821
:100830000FE0DFF8A880404502D14FF0030808E040
:10084000DFF89C80404502D14FF0040801E04FF0F2
:10085000070808FA07F848EA0608CCF80888DAF822
:1008600000605746D1F804C09E435FEACC3C00D5F7
:100870001E433E60DBF800605F46D1F804C09E4333
:100880005FEA8C3C00D51E433E60DEF80060774690
:10089000D1F804C09E435FEACC2C00D51E433E60D5
:1008A000084F0C373E68D1F804C09E435FEA8C2C99
:1008B00000D51E433E60521C102AFFF431AFBDE844
:1008C000F88F0000003C01404438024000300140F5
:1008D000000002400004024000080240000C0240F8
:1008E000001002400AB1816170470904FBE7000073
:1008F00001488068704700000400002002488168B9
:100900000278114481607047040000200B4810B544
:10091000016841F400710160016841F48061016087
:10092000016841F480710160032000F06FF800203D
:1009300000F006F800F024F8002010BD003C024052
:1009400070B50D4D04464FF47A712878B1FBF0F084
:100950000A490968B1FBF0F000F044FD48B9102CD9
:1009600007D200222146501E00F030F800206C60B3
:1009700070BD012070BD00000400002010000020A8
:100980000A4808B5016841F480410160006800F43C
:10099000804000900548001F016841F080510160CF
:1009A000006800F08050009008BD0000443802400C
:1009B000002809DB00F01F0201219140400980005E
:1009C00000F1E020C0F8001170470000F0B40E4BB9
:1009D0001B680C46C3F30223C3F10705042D00D99D
:1009E0000425191D072901D2002300E0DB1E012682
:1009F00006FA05F1491E214099409E40761E164098
:100A00003143F0BC00F0F9BF0CED00E0064900F006
:100A1000070208684FF6FF03184040EA0220034A25
:100A200010430860704700000CED00E00000FA057C
:100A30002DE9F0470E46050065D0DFF81481D8F89F
:100A40000000F7B200F00700B04207D288F800704B
:100A5000D8F8000000F00700B04254D128683D4C9F
:100A6000810712D5400703D5206840F4E05020608C
:100A70002878000703D5206840F460402060206893
:100A8000A96820F0F000084320602878C0072DD026
:100A9000304968680839012812D0022813D0032889
:100AA00011D00968890700292DDA216821F0030196
:100AB00001432160FFF71CFF814641F2883A0EE0B6
:100AC00009688903EFE709688901ECE7FFF710FF80
:100AD000A0EB0901514502D90320BDE8F087206849
:100AE000696800F00C00B0EB810FEFD1D8F800106E
:100AF000404601F00701B14207D90770006800F0D5
:100B00000700B04201D00120E7E72878400705D56B
:100B10002068E96820F4E050084320602878000746
:100B200006D52068296920F4604040EAC1002060B1
:100B300000F018F82168084AC1F30311515CC8405D
:100B40000649086006480068FFF7FAFE0020C4E77F
:100B5000003C024008380240804601081000002096
:100B600008000020154810B5006810F00C02144869
:100B700013D01449042A0FD0082A0ED10F4C241F79
:100B80002268236802F03F025B0207D52068C0F3A9
:100B90008810A0FB010106E0084610BD2168C1F3E2
:100BA0008811A1FB00010023FFF714FB2168C1F3AA
:100BB0000141491C4900B0FBF1F010BD083802406A
:100BC0000024F40040787D012DE9F84F04006ED038
:100BD0002078DFF84C93C007A9F104054AD009F149
:100BE00004000168C1F38101012908D00068C0F345
:100BF000810002280AD1D9F80000400206D52868F1
:100C0000800337D560680028E1D033E06068B0F534
:100C1000803F10D0B0F5A02F286810D020F480308D
:100C20002860286820F4802028606068A8B1FFF759
:100C30005FFE06460DE0286840F48030F4E740F49B
:100C400080202860F7E700BFFFF752FE801B642872
:100C500073D828688003F7D50CE0FFF749FE0646F5
:100C600005E000BFFFF744FE801B6428F0D8286829
:100C70008003F7D42078DFF8AC8280074FF0000AB9
:100C80003ED5A748001D016811F00C0F08D0006880
:100C9000C0F3810002280BD1D9F80000400207D42C
:100CA0002868800716D5E068012800D112E033E1FA
:100CB000E068B8B10120C8F80000FFF719FE064649
:100CC00005E000BFFFF714FE801B0228C0D828688B
:100CD0008007F7D52868216920F0F80040EAC100B4
:100CE00028600DE0C8F800A0FFF702FE064604E009
:100CF000FFF7FEFD801B02281FD828688007F7D465
:100D00002078000722D5864F87486169703771B116
:100D100001210160FFF7ECFD064604E0FFF7E8FD66
:100D2000801B022809D838688007F7D50EE0C0F884
:100D300000A0FFF7DDFD064605E082E0FFF7D8FDE5
:100D4000801B02287DD838688007F7D420784007B8
:100D500068D5DFF8CCB100270BF13C0BDBF80000C5
:100D6000C0000BD4DBF8001041F08051CBF800102C
:100D7000DBF80000012700F0805000906B4E3068D7
:100D8000C00510D4306840F480703060FFF7B0FDCB
:100D9000009005E0FFF7ACFD0099401A022850D8FA
:100DA0003068C005F6D55E4EA0686C3601280FD0BD
:100DB0000528306810D020F001003060306820F045
:100DC00004003060A068B8B1FFF792FD00900FE01A
:100DD000306840F00100F4E740F004003060F7E7CD
:100DE000FFF786FD0099411A41F28830814266D8AA
:100DF00030688007F4D50EE0FFF77AFD009007E039
:100E0000FFF776FD0099411A41F28830814256D8A9
:100E100030688007F4D42FB1DBF8001021F0805146
:100E2000CBF80010A069C8B33D49091D0968C1F39A
:100E3000810102294AD00228504607D0C8F8600034
:100E400000E03CE0FFF754FD04463BE04746C8F8AD
:100E50006000FFF74DFD064605E000BFFFF748FDC7
:100E6000801B02282BD828688001F7D4D4E9070119
:100E70000843A16A2E4A490802EB0141626A41EA2D
:100E80008211084394F82C1040EA0161C9F800105F
:100E900001203866FFF72CFD044606E03EE000BF67
:100EA000FFF726FD001B022809D828688001F7D526
:100EB00034E000BFFFF71CFD001B022802D903200D
:100EC000BDE8F88F28688001F4D427E00128F7D026
:100ED000D9F80000E26900F4800191421CD1226A35
:100EE00000F03F01914217D147F6C071626A01409C
:100EF000B1EB821F10D1A26A4FF0FF3300F44031F2
:100F000003EB5202B1EB024F06D194F82C1000F023
:100F10007060B0EB016F01D00120D1E70020CFE776
:100F20000438024000004742800E474200700040F3
:100F30000000FFFF7047000038B5016804464A68AA
:100F40008868C043430606D5C30704D1D3435B0674
:100F500001D4216C05E0830708D4D3431B0605D4D4
:100F6000616C01B02046BDE830400847830603D5D8
:100F7000430601D5C30551D4D3439B064ED4430643
:100F80000AD494F85130032B49D0636D43F0040325
:100F90006365CB688B680093830609D4636D43F067
:100FA000010363658B6800930B6823F040030B60BB
:100FB000C00506D4606D40F0080060652068806858
:100FC0000090606D002829D02068416821F0E00180
:100FD0004160012084F85100900701D4D00722D04D
:100FE0002068416821F003014160114DE06C40B17F
:100FF0000565E06CFFF7EFF918B1606D40F0400057
:101000006065A06C002809D00565A06CFFF7E3F9C6
:10101000002803D0606D40F04000606538BDC868AE
:101020008868009038BD2046FFF784FF38BD000077
:10103000A117000870B5040009D0606A002540B10E
:1010400025616561A56294F8510040B10CE0012072
:1010500070BD6068B0F5827FF4D0E561F2E784F896
:101060005050204600F044F8022084F851002068D7
:10107000016821F040010160A088218900F482709C
:1010800001F404410843A18901F400610843217C73
:1010900001F002010843217D01F001010843218B89
:1010A00001F400710843217F01F03801084394F8EE
:1010B000201001F080010843218D01F40051084304
:1010C00021680860A069042101EA104094F8241006
:1010D00001F010010843216848602068C16921F4CB
:1010E0000061C1616565012084F85100002070BD78
:1010F00070B586B0064614216846FFF7A3F8234969
:101100003068884240D122480025016841F480516E
:101110000160006800F4805005901D481438016893
:1011200041F0010101600068694600F0010005908E
:10113000A02000900220CDE90105032003900520A6
:1011400004901448FFF7DEFA144C134820604FF067
:10115000806060604020C4E902050001C4E9040524
:10116000A561E561256220466562FFF717FA08B1BF
:10117000FFF72FF9B464002211462320A663FFF77E
:1011800025FC2320FFF714FC06B070BD00300140A1
:1011900044380240000002404064024064010020E4
:1011A0002DE9F84F044690F8500000271D461646DA
:1011B000894601280DD04FF0010B84F850B0FFF79D
:1011C00097FB804694F85100BA46012804D00227C4
:1011D00093E00220BDE8F88FB9F1000F73D0002E24
:1011E00071D0032084F85100C4F854A0C4F83090A2
:1011F000A686E686C4F838A0A4F83CA0A4F83EA0D1
:10120000C4F844A0C4F840A0A068B0F5004F09D1CC
:101210002068016821F0400101602068016841F404
:101220008041016020680168490603D4016841F0EB
:1012300040010160E068B0F5006F606803D030B332
:10124000012E24D041E008B1012E1CD1206B216871
:101250000088C86006E020688168890709D5216B8D
:101260000988C160206B801C2063E08E401EE086F0
:1012700009E0FFF73DFBA0EB0800A84202D3681C81
:1012800001D031E07DB3E08E0028E4D120E0206B76
:1012900021680078087306E020688168890709D50D
:1012A000216B09780173206B401C2063E08E401E87
:1012B000E0860AE0FFF71CFBA0EB0800A84203D37E
:1012C000681C02D010E017E06DB1E08E0028E3D179
:1012D00042462946204600F0B3FA08B12020606556
:1012E000A06818B106E0FFE7032706E02068C168A0
:1012F00080680090606D00B1012784F851B084F8D7
:1013000050A0384666E700002DE9F041044690F809
:1013100050000026012809D0012784F8507094F865
:1013200051000025012804D002264EE00220BDE82D
:10133000F08189B182B1032084F851006565216391
:10134000A286E286A56365642564A587E587A06813
:10135000B0F5004F02D00BE0012636E020680168AE
:1013600021F0400101602068016841F48041016082
:10137000A16C18480864A16C1748C863A16C174891
:10138000C864A06C0565E38E2268216B0C32A06CEA
:10139000FFF76EF938B1606D40F01000606501260E
:1013A00084F8517011E020680168490603D401688F
:1013B00041F0400101602068416841F02001416036
:1013C0002068416841F00201416084F85050304685
:1013D000ADE70000D3170008DD170008B1170008BB
:1013E0007047704710B5401EB0F1807F01D30120D7
:1013F00010BD4FF0E02460610F21601700F0FDFA8E
:101400000020A06107202061002010BDFEE72DE92B
:10141000F04104461D4616460F462A2000F038F9D2
:10142000204600F01BF9304600F018F92B2000F0A0
:101430002FF9384600F012F9284600F00FF9BDE800
:10144000F0412C2000F024B92DE9F84381461F46D5
:10145000581E83B21646501E82B20C464846DDF82E
:101460002080FFF7D4FF16E04D4610E0B8F80000EA
:101470006423000A8DF8000098F800008DF8010040
:10148000022269460648FFF78BFE6D1CADB2B542DD
:10149000ECD3641CA4B2BC42E6D3BDE8F8830000E0
:1014A0000C01002038B56C4C002210212046FFF7BB
:1014B00019FA6420FFF714F9012210212046FFF7E2
:1014C00011FA6420FFF70CF9012204212046FFF7EE
:1014D00009FA6420FFF704F9112000F0D9F864201C
:1014E000FFF7FEF8362000F0D3F8002000F0C6F831
:1014F0003A2000F0CDF8052000F0C0F8B22000F04E
:10150000C7F80C2000F0BAF80C2000F0B7F8002063
:1015100000F0B4F8332000F0B1F8332000F0AEF85A
:10152000B72000F0B5F8352000F0A8F8BB2000F097
:10153000AFF8192000F0A2F8C02000F0A9F82C2084
:1015400000F09CF8C22000F0A3F8012000F096F80B
:10155000C32000F09DF8122000F090F8C42000F0A5
:1015600097F8202000F08AF8C62000F091F80F20AC
:1015700000F084F8D02000F08BF8A42000F07EF872
:10158000A12000F07BF8E02000F082F8D02000F0ED
:1015900075F8042000F072F80D2000F06FF81120AB
:1015A00000F06CF8132000F069F82B2000F066F8CA
:1015B0003F2000F063F8542000F060F84C2000F069
:1015C0005DF8182000F05AF80D2000F057F80B20B5
:1015D00000F054F81F2000F051F8232000F04EF8DE
:1015E000E12000F055F8D02000F048F8042000F089
:1015F00045F80C2000F042F8112000F03FF81320CD
:1016000000F03CF82C2000F039F83F2000F036F8CC
:10161000442000F033F8512000F030F82F2000F083
:101620002DF81F2000F02AF81F2000F027F82020B6
:1016300000F024F8232000F021F8212000F028F801
:101640000020F0231A4601460090FFF7FDFEBDE89A
:101650003840292000F01CB80000024008B5010AFB
:101660008DF800108DF801006423022269460248BB
:10167000FFF796FD08BD00000C01002001B56423B2
:10168000012269460148FFF78BFD08BD0C010020CF
:1016900031B5094C002208212046FFF723F96423C5
:1016A000012269460548FFF77BFD012208212046FB
:1016B000FFF718F938BD0000000002400C010020BF
:1016C000094808B5016841F4800101600068002202
:1016D00000F48000009011463A20FFF777F9BDE84A
:1016E00008403A20FFF764B93038024010B586B0A0
:1016F00014216846FEF7A6FD1148016841F08001FB
:101700000160016801F080010591016841F001016B
:10171000016000680B4C00F00100059001221C21C3
:101720002046FFF7DFF81C200121CDE9000103204E
:10173000CDE9021069462046FEF7E4FF06B010BD71
:1017400030380240000002400F4810B50D490160DA
:101750004FF48271416000218160C1604FF40072DA
:101760000161C0E90512C1610162416281620A2121
:10177000C162FFF75FFC002803D0BDE81040FEF710
:1017800028BE10BD003001400C010020FEE7FEE73E
:10179000704700000148FFF7CFBB00000C0100209C
:1017A00010B5806B0021C187C186FFF7C3FB10BD58
:1017B00010B5806B01684A6822F003024A60416DEF
:1017C00041F010014165012180F85110FFF7B2FB93
:1017D00010BD10B5806BFFF704FE10BD38B505468F
:1017E000846BFFF785F8024628680068C00523D49B
:1017F0002068416821F0200141602068416821F0A3
:10180000020141606421204600F01AF818B1606DB1
:1018100040F020006065A068002118B92068C26807
:1018200080680090E186012084F85100606D18B155
:101830002046FFF77FFB38BD2046FFF7D1FD38BDBE
:1018400038B504461248134B0068B0FBF3F04FF470
:101850007A73584300906068B0F5827F0DD10B46D3
:10186000009200228021204600F016F870B1606DD1
:1018700040F020006065032038BD009830B1401E64
:10188000009020688068C0430006F6D5002038BD6F
:101890001000002000366E012DE9F8431E469146E7
:1018A00088460446089DFFF723F8401B351AFFF7CA
:1018B0001FF8074625480068C0F3CB30684338E07E
:1018C000701C37D0FFF714F8C01BA84203D215B123
:1018D000009860B32CE02068416821F0E00141608D
:1018E0006068B0F5827F0BD1A068B0F5004F02D0E0
:1018F000B0F5806F04D12068016821F040010160DB
:10190000A06AB0F5005F09D12068016821F4005198
:1019100001602068016841F400510160012084F8F1
:101920005100002084F850000320BDE8F883002512
:10193000401E00902068816838EA010004D0002130
:101940004945BDD10020F0E70121F9E71000002052
:101950007047FEF7D3BF000030B593B03021684622
:10196000FEF770FC14210CA8FEF76CFC1C48002448
:10197000016841F080510160006800F080501190D2
:101980001848016841F4404101600068022500F4F4
:10199000404011900120039010200490009506957E
:1019A0000820CDE907406420CDE9090504200B900B
:1019B0006846FFF709F908B172B6FEE70F20CDE9D6
:1019C0000C054FF48050CDE90E4003210CA8109473
:1019D000FFF72EF8002801D072B6FEE713B030BD35
:1019E00040380240007000400248016841F4700134
:1019F0000160704788ED00E0FEE70907090E002846
:101A000004DB00F1E02080F80014704700F00F00C4
:101A100000F1E02080F8141D704702E008C8121F92
:101A200008C1002AFAD170477047002001E001C1C7
:101A3000121F002AFBD1704710B54021094801F060
:101A4000B3F810F0CDF9084C0023042260601E2189
:101A500006480FF0BDFFA06002F05EFA0020207083
:101A600010BD000030F5002084000020D13F0008A8
:101A70002DE9F04100251C4688460646152A3BD232
:101A8000DFE802F00B1B1D2E3744535C5E676A795A
:101A9000878999A6ABB0B5BACD00304608F02FFEC5
:101AA0000546404608F02BFE014605EBD570401078
:101AB00001EBD171A0EB6100A1E025800EE0304682
:101AC00008F01DFE0746404608F019FE07EBD771E7
:101AD000491000EBD070A1EB60008BE065800BE05B
:101AE000304608F00CFE0746404608F008FE381A5B
:101AF00080E0258097E0608020883188084420803D
:101B00006088718808446080BDE8F081304608F044
:101B1000F6FD0546404608F0F2FD05EBD57149108B
:101B200000EBD070A1EB60007CE0304608F0E7FDF0
:101B30000546404608F0E3FD281A73E025805FE083
:101B4000304608F0DCFD0546404608F0D8FD281A6E
:101B500055E02580084618E0304608F0D0FD0546DF
:101B6000404608F0CCFD05EBD571491000EBD07074
:101B7000A1EB600007E0304608F0C1FD0546404695
:101B800008F0BDFD281A2080404608F08CFD404238
:101B9000B1E7258018E0304608F0B1FD0546404623
:101BA00008F0ADFD014605EBD570401001EBD17199
:101BB000A0EB610007E0304608F0A1FD0546404675
:101BC00008F09DFD281A2080304608F06CFD92E751
:101BD000084608F094FD40420CE0084608F08FFDEE
:101BE00040420CE0084608F08AFD40421AE03046C8
:101BF00008F085FD208071E7304608F080FD2080E8
:101C0000304608F050FD0546404608F04CFD05EB17
:101C1000D571491000EBD070A1EB60006BE7304646
:101C200008F06DFD2080304608F03DFD0546404639
:101C300008F039FD281A5EE770B5B1F90030B2F945
:101C40000040A34200DC23460380B1F90250B2F900
:101C50000240A54200DD2C464480B1F90460B2F98F
:101C60000450AE4200DA35468580B1F90610B2F96B
:101C70000620914200DB1146C1800120AB4201DC0D
:101C80008C4200DD002070BDF8B50D4604461646B6
:101C9000B4F90010B5F900200020914212DBB4F92C
:101CA0000220B5F902309A420CDBB4F90420B5F9F0
:101CB00004309A4206DCB4F90620B5F906309A429F
:101CC00000DC0120002E33D0ADF800106088ADF8A4
:101CD000020032466946284600F047F8002827D01F
:101CE000A088ADF800006088ADF802003246694671
:101CF000284600F03AF800281AD02088ADF80000F5
:101D0000E088ADF8020032466946284600F02DF81A
:101D100000280DD0A088ADF80000E088ADF80200E2
:101D200032466946284600F020F8002800D00120FD
:101D3000F8BDB0F90020B1F904309A4213DCB0F9D3
:101D40000420B1F900309A420DDBB0F90220B1F95C
:101D500006309A4207DCB0F90600B1F90210884259
:101D600001DB01207047002070472DE9FC4114463B
:101D70000E46B1F90020B0F9001005468A423ADB60
:101D8000B5F90400824236DCB6F90270B5F90220DA
:101D9000974230DBB5F906309F422CDC002C75DD14
:101DA000401A9A1A401C521C00B212B200EBD070BA
:101DB00002EBD27240105210904200DB1046844277
:101DC00000DD0446ADF80010288800222044ADF85C
:101DD00004006888ADF80200688831462044ADF8F8
:101DE00006006846FFF7C1FF40B1BDF8040020447B
:101DF000ADF804003FE00020BDE8FC81E888002247
:101E0000001BADF80200E888ADF8060031466846D0
:101E1000FFF7ABFF28B1BDF804002044ADF8040083
:101E200011E0A8880022001BADF80000A888ADF8DA
:101E3000040031466846FFF798FF50B1BDF8000036
:101E4000001BADF80000BDF80200001BADF8020059
:101E500016E06888ADF80200688800222044ADF8DA
:101E6000060031466846FFF780FF70B1BDF80000FC
:101E7000001BADF80000BDF806002044ADF80600D8
:101E8000314668460FF038F9B6E7FFE70120B3E7BF
:101E900010B5B1F90040B2F900309C4200DA234697
:101EA0000380B1F90240B2F902309C4200DA2346C5
:101EB0004380B1F90440B2F904309C4200DD23466E
:101EC0008380B1F90610B2F90620914200DC114678
:101ED000C18010BD2DE9FF4F87B01D46DDE91476A6
:101EE000DDF858908A468346022E4BD3002F49D006
:101EF00001F09CFA804609F029F800F1100480688E
:101F000004905246594605A8FFF796FE002839D09E
:101F1000BDF814002188401A01B2ADF81410BDF8C4
:101F200016006288801AADF81600BDF818002288E5
:101F3000801A00B2ADF81800BDF81A206388D21AD2
:101F4000ADF81A2095B198F80820D2070ED1401AA2
:101F5000401C01B2002007E02A5C802A01D9FF2240
:101F600000E000222A54401C8842F5DBD8F8140017
:101F700058B1CDE90065029705AA2046099B04994E
:101F800006F04EFF0BB0BDE8F08FB9F1000F0AD09C
:101F900001A8009680E8A00205AA2046099B0499A2
:101FA00006F0C0FCEEE7CDE90065029705AA2046E1
:101FB000099B049906F050FDE4E72DE9F04F87B046
:101FC0001C46DDE91065DDF848A017468B46022D5A
:101FD00055D3002E53D00A46014605A8FFF72CFE24
:101FE00000284CD001F022FA814608F0AFFF0146EC
:101FF000BDF8142030F8103F8968D21A12B2ADF83B
:102000001420BDF81630B0F802C0A3EB0C03ADF8F5
:102010001630BDF81830B0F800C0A3EB0C031BB2AB
:10202000ADF81830BDF81AC0B0F80280ACEB080C5F
:10203000ADF81AC0C4B199F808C05FEACC7C13D1DE
:102040009A1A521C13B200220CE014F802C0BCF120
:10205000800F02D94FF0FF0C01E04FF0000C04F8A4
:1020600002C0521C9A42F0DBD9F8142052B10097FA
:102070000396CDE901545B4605AA10F099FA07B022
:10208000BDE8F08FBAF1000F0AD00DF108085B46E9
:1020900088E85004CDE9007505AA10F011F8EEE7C4
:1020A00000970396CDE901545B4605AA10F0B8F8F5
:1020B000E5E700002DE9FC5F05460FF091FE504C6E
:1020C0000190E8686060002128460FF0DBFD606841
:1020D000C16BA1B10FF0BCF90FF03AF96068B0F82C
:1020E000681189057DD0A34608F0B7FF002864D0A9
:1020F000DBF804005D46416900295ED104E000215F
:10210000C0F86811BDE8FC9F08F020FF04460FF0FE
:1021100099FAA0690028FCD16868B0F90000400075
:1021200000F050FE8246A16820688946814200D1B5
:1021300060688046686808F01DFF06460024AB46CC
:102140002EE00A1992F8482142BB01EBC40131F993
:10215000482FB1F9025016FB052389885F00891AC0
:10216000491C09B24900009110E000BF08EB0701CB
:102170005046009A00F0EAFE09EB07005146009A2B
:1021800000F0E4FE6D1C07EB46072DB2DBF80400FF
:1021900000EBC400B0F94E00A842E7DA641CA4B218
:1021A000DBF80410B1F86821C2F30902A242C8D8D2
:1021B000BAF1000001D000F089FEDBF804004FF412
:1021C00080715C46483000F0B7FF6068202100F560
:1021D000A47000F0B1FF61680020C1F868010198A7
:1021E00000E007E00FF0F6FD0146606883690BB17F
:1021F0002268984700F0C4FDBDE8FC5F00F002B81B
:102200002800002010B5044C6068002803D00DF0B1
:102210004BF80020606010BD3C00002044210148C4
:1022200000F0C2BC18F500201821014800F0BCBC29
:102230003CF500202DE9FF4F85B08946129C82466F
:1022400013B9B4F5807F7CD04FF00A0893FBF8F700
:10225000784200EB800003EB40057E1C38B201F0B1
:10226000E3FC009030B201F0DFFC83465A3738B20D
:1022700001F0DAFC07465A3630B201F0D5FC0246CE
:102280000098C5F10A0101FB00F30BFB053379430C
:1022900002FB051193FBF8F691FBF8FB1398B0F9DC
:1022A0000080C8F10000604340F30F231398A9EBAE
:1022B00008016143B0F902E041F30F22CEF10000C2
:1022C00060430BFB03F7079940F30F2006FB03FC69
:1022D000A1EB0E01614341F30F2906FB1071CDE91B
:1022E00002C70BFB00C30BFB02F706FB107406FBD7
:1022F00002FC0BFB00C0CDE900C708EBE43425B2BB
:102300000EEBE030039F04B206FB1970DDF808C045
:10231000019F0BFB09C206FB1976DDF800C008EB34
:10232000E1310EEBE33308EBE0300EEBE23208EB89
:10233000E6360BFB09CC09B21BB200B212B236B2C0
:1023400000E006E00EEBEC373FB2884211DA84463B
:1023500010E00020AAF80000AAF80200A9F101008C
:10236000AAF804000798401EAAF8060009B0BDE8C4
:10237000F08F8C46AE4201DAB04600E0A846C44574
:1023800005DA884201DA844606E08C4604E0AE4273
:1023900001DAB44600E0AC46AAF800C0884201DD8C
:1023A000844600E08C46AE4201DDB04600E0A8461F
:1023B000C44503DD884206DC084604E0AE4201DD88
:1023C000304600E02846AAF804009A4201DA104696
:1023D00000E01846A74201DA394600E0214688426B
:1023E00005DA9A4201DA104606E0184604E0A742F0
:1023F00001DA384600E02046AAF802009A4201DDE0
:10240000104600E01846A74201DD394600E02146AB
:10241000884203DD9A4206DC1A4604E0A74201DD49
:102420003A4600E02246AAF806209FE72DE9FE4F33
:102430000446D0F800B0B0F90800D4E909650B1AD9
:10244000B4F90A00121AE089B0F5807F37D0A0896C
:10245000E18E0028084601FB03F13ED000FB02F3A9
:10246000206BE26A00FB01F702FB13774A4300FB93
:10247000032006EBE73905EBE030B4F904104FEA2E
:10248000292706128046B94246DD002F44DBB4F905
:102490000600B04240DD002E3EDB94F834004207D7
:1024A0003DD5820704F114001CD401FB0671022201
:1024B0004D0092460BEB050100F0F4FD22E0206B8D
:1024C000E16A00FB03F701FB1277594300FB02109E
:1024D00006EBE71905EBE010CFE700FB025006EB37
:1024E0000109CAE701FB067101EB41054FF0030A40
:1024F0000BEB0501022200F0D5FDE81C584410F852
:10250000010CA07594F83400C0071ED01848A18AA9
:10251000008880B2814218D10020BDE8FE8F32B21F
:1025200004F118002369CDE90102002539B2AA4659
:102530008B460AF07DFB0090BDF80000A082DDE92B
:10254000010259460AF00CFBDBE7E07C68B1A4F815
:102550003890A4F83A80A787E687256484F844A0D9
:102560002046BDE8FE4F00F005B80120D5E7000089
:10257000944601082DE9F04F044690F83810D0F841
:10258000009090F83A0087B04FF0FF36702907DAD4
:10259000B4F93C203546012A00D5002580310DE0F4
:1025A000902916DDB4F93C20B4F904300125521C01
:1025B0009A4200DB0025A1F27F114942C9B2884648
:1025C000702809DAB4F93E10012900D500268030C0
:1025D00010E00025FF21F2E790280DDDB4F93E1050
:1025E000B4F906200126491C914200DB0026A0F226
:1025F0007F104042C7B201E00026FF2760690090CB
:10260000A07D0590002083468246049094F8340013
:10261000400744D594F84410206C11FB050149444F
:10262000022201A800F04AFDA08894F8441010FB93
:1026300001F0216C022206FB0011494403A800F0BE
:102640003DFDA18894F8440011FB00F1226C06FBCB
:10265000012210FB05901118022202A800F02EFDA5
:1026600094F8340080075BD594F84400226C10FB8A
:10267000052300EB09010B4413F8013C0493A388E4
:1026800013FB00F306FB0322114411F801BC10FBFD
:102690000500111801EB090010F8010C3FE0A08FB4
:1026A000B4F93E20284401B204F1180081462369A0
:1026B0000AF0BEFA0190E08FB4F93C10304402B247
:1026C000484623690AF0B4FA0390E08F2369304446
:1026D00002B2A08F284401B248460AF0A9FA02903B
:1026E00094F8340080071BD5A08FB4F93E2028440D
:1026F00001B248460AF034FA0490E08FB4F93C1075
:10270000304402B248460AF02BFA8346E08F304448
:1027100002B2A08F284401B248460AF021FA82464C
:1027200094F8340042464546800735D5059810FB9D
:1027300008F30499C8F1FF0011FB0031C1F3072130
:102740001BFB08F61AFB0060C0F3072011FB07F320
:10275000C7F1FF0610FB06331B0AA375022907D831
:10276000022803D8002007B0BDE8F08F002702E060
:10277000022800D8FF270598022800D800220498D4
:10278000022800D8FF22BBF1020F00D80025BAF1C1
:10279000020F03D8FF2501E0FF20A075EAB1FF2A50
:1027A00004D0DDE9000108F095F90090BDB1FF2DDE
:1027B00017D0DDE902102A4608F08CF9049097B191
:1027C000FF2F05D001463A46009808F083F90090A3
:1027D000BDF80000A0820120C5E70198E5E7029856
:1027E000ECE70398EAE7BDF81000F3E72DE9F047BE
:1027F0000446B0F908000A2700026062B4F90A0032
:102800000002A062B4F90C1091FBF7F5684200EBEE
:10281000800001EB4006684205F1010800B201F0BA
:1028200003FA8246E84300B201F0FEF98146C5F1A1
:102830005A0000B201F0F8F90546C8F15A0000B29A
:1028400001F0F2F9C6F10A0101FB0AF3024609FBA5
:10285000063090FBF7F06943E06202FB061090FB44
:10286000F7F02063A07C0AF0EFFA94F8341060F3DC
:10287000000184F83410A07C0AF0D6FA94F83410E1
:1028800060F3410184F83410A07C042822D005288C
:1028900020D006281ED021F0040100BF84F8341097
:1028A00021682162A16921F0E00160F30401A088A0
:1028B00060F39421E08860F35F51A161E0894FF4F7
:1028C0008031B1FBF0F0E086FF20A075208AA08265
:1028D000BDE8F08741F00401E0E700002DE9F04792
:1028E000444E89468046318821B14348434C0568AF
:1028F00000200EE00020BDE8F08700BF00EBC00222
:1029000005EB8202136AA34201DD5B1E1362401CC9
:1029100080B28842F2D300241BE000BF04EBC40065
:1029200005EB800778680BF0F1FB10B1012809D0A6
:102930000DE0796841450AD139891FFA89F0814251
:102940000ED004E041467868FDF78EFC40B1641C6F
:10295000A4B230888442E1D32C46012032881AE0A8
:1029600004EBC40005EB80046169206A08444FF45D
:102970007A712062884200DD2162002CECD036E0C2
:1029800000EBC00105EB8101266A0B6AB34200DA55
:102990000C46401C80B29042F2D3606810B12046D1
:1029A0000AF032FE0FF01CFA064600254A46414660
:1029B000204665610AF07EFE18B12562606978B133
:1029C00015E020460AF020FE2021204600F0B4FB4E
:1029D0002421204600F0B0FB4FF00040206289E740
:1029E00030460FF0F7F9606108B9012060612046B8
:1029F00081E70000380000209000002001000080E6
:102A000010B510210C4800F0CFF80AF00FFE40B1CD
:102A10000A4901600A4941600A4981600A49C16066
:102A200010BD08F0A8F90028FAD10022134607A02B
:102A300008F0A6F9FEE7000048F50020D9CF00080D
:102A400049D300084DD50008A5CF00084F75742064
:102A50006F66206D656D6F72790000000021084679
:102A60000BF07CBB7FB50E46040003D108F070FA72
:102A7000040020D00025E6B1ADF80050ADF80250BA
:102A800008F078FA401EADF80400204608F0CAFAB3
:102A9000401EADF806006A46314602A8FFF7CCF8A2
:102AA000002808D0226912B102A9204690470026CA
:102AB0000DE0C0F868517FBD04EBC601002202A8FA
:102AC0004831FFF7E1F80028F5D1761CB6B2B4F82A
:102AD0006801C0F30900B042EED8B4F86801C0F351
:102AE0000900202804D204EBC00002A9483004E009
:102AF00004F148006946C4F8685107F0B1FDB4F824
:102B000068010321C0F30900401CC4F86801E06AB1
:102B10000FF0B8F87FBD70B50C461E46154611463D
:102B200000F0F2F8AEB10022294620460FF01EFE5A
:102B30002946204662680FF013FE616819B12A46E3
:102B400020460FF013FE6560A068002800D1A56044
:102B500070BD29462046A2680FF008FE00222946D3
:102B600020460FF0FDFDA16819B12A4620460FF05E
:102B7000F7FDA56060680028EAD1656070BD00219E
:102B800000B1416808467047002802D00068091D5E
:102B900040587047002801D0006840587047002115
:102BA00000B181680846704700224260C91C21F0CC
:102BB000030182600160704770B504460068083008
:102BC0000CF01EFB050013D00146002220460FF03A
:102BD000CDFD2946204662680FF0C2FD616819B13B
:102BE0002A4620460FF0C2FD6560A06800B9A560C6
:102BF000284670BD2DE9F0410D4607002BD055B396
:102C0000FFF7BDFFA84204D13846FFF7D5FF0446C1
:102C10001EE0386808300CF0F3FA04001BD0294697
:102C20003846FFF7B7FF06460146224638460FF002
:102C300097FD3246214638460FF098FD2246294638
:102C400038460FF093FD2A46214638460FF088FD9E
:102C50002046BDE8F0810020FBE770B5044600681F
:102C600008300CF0CDFA050013D0014600222046B2
:102C70000FF076FD29462046A2680FF077FDA16887
:102C800019B12A4620460FF06BFDA560606800B9B7
:102C90006560284670BD28B1416809B9806808B1EF
:102CA00000207047012070472DE9F04116460D467F
:102CB0000746B14226D01EB11146FFF76BFF01E077
:102CC000FFF76DFF0446A5421CD02946384600F0A8
:102CD0001BF82A46214638460FF042FD2246294677
:102CE00038460FF043FD2A46314638460FF03EFD88
:102CF0003246294638460FF033FD06B9BD60002C38
:102D000000D17D60BDE8F08170B50A460446FFF74A
:102D100036FF002390420AD111462046FFF734FFC8
:102D20006060011E01D0002224E0A36070BD204637
:102D3000FFF735FF9042114620460CD1FFF72AFFDE
:102D4000A060011E05D02046BDE8704000220FF0B3
:102D500007BD636070BDFFF71DFF064611462046A4
:102D6000FFF712FF05460246314620460FF0F8FCF9
:102D7000324629462046BDE870400FF0F7BC0000FF
:102D800070B500200D49054601EBC002401CC0B2E1
:102D900095710228F8D30A4E002400BF56F834007B
:102DA00038B10CF081FA06EBC40046F83450857156
:102DB0008580641CE4B2102CF0D370BDB8000020F4
:102DC00060F5002070B500281DD0012110280AD818
:102DD0002F4B002203EBC204A479E4070ED0521C4F
:102DE000D2B2022AF6D32B4C4FF0FF33002200BFA1
:102DF00004EBC205AE79F60706D017E003EBC2007C
:102E0000817153F8320070BDAD8885420ED305D173
:102E100004EBC200817154F8320070BD002B04DB5A
:102E200004EBC306B688B54200D253B2521CD2B2EC
:102E3000102ADDD3002B05DB04EBC300817154F8AD
:102E4000330070BD5FF0000504EBC5029279D20734
:102E500009D06D1CEDB2102DF6D3002213460EA042
:102E600007F08EFFFEE704EBC5029171908054F8E5
:102E70003520014610460CF045FA44F8350000288C
:102E8000DFD100221346104807F07AFFFEE700006A
:102E9000B800002060F500204E6F20667265652046
:102EA0006275666665722E20496E63726561736530
:102EB000204C565F445241575F4255465F4D415842
:102EC0005F4E554D2E00000094E5020810B500211C
:102ED0000C4B0A4653F83140844209D0491CC9B210
:102EE0000229F7D3084B002153F83140844203D123
:102EF00003EBC100827110BD491CC9B21029F3D384
:102F000010BD0000B800002060F50020002803D0AC
:102F10000449884201D10020704750F8040C400851
:102F200070470000B0000020074906480022CA6030
:102F30004860016847F6FC7221F0010162F35F010D
:102F40000160704760F60020A800002030B500F056
:102F5000030401F003050346A54243D14EE00C787B
:102F60001C704C785C708C789C70CC78DC700C7920
:102F70001C714C795C718C799C71CC79DC710C7A08
:102F80001C724C7A5C728C7A9C72CC7ADC720C7BF0
:102F90001C734C7B5C738C7B9C73CC7BDC730C7CD8
:102FA0001C744C7C5C748C7C9C74CC7CDC740C7DC0
:102FB0001C754C7D5C758C7D9C75CC7DDC750C7EA8
:102FC0001C764C7E5C768C7E9C76CC7EDC760C7F90
:102FD0001C774C7F5C778C7F9C77CC7FDC772031B3
:102FE000203A2033202ABAD805E000BF11F8014B5F
:102FF00003F8014B521E002AF8D130BD4CB3C4F186
:10300000040405E011F8015B521E03F8015B641E25
:10301000FCB1002AF6D11CE010C9203A10C310C937
:1030200010C351F8084B43F8084B51F8044C43F8CF
:10303000044C51F8104B43F8104B51F80C4C43F82A
:103040000C4C51F8084C43F8084C51F8044C43F828
:10305000044C202AE0D802E010C9121F10C3042A31
:10306000FAD804E011F8014B03F8014B521E002A74
:10307000F8D130BD10B5034605E000BF11F8014B93
:1030800003F8014B521E002AF8D110BD10B50346BB
:1030900005E000BF11F8014B03F8014B521E002A56
:1030A000F8D110BD10B5034605E000BF11F8014B83
:1030B00003F8014B521E002AF8D110BD10B503468B
:1030C00005E000BF11F8014B03F8014B521E002A26
:1030D000F8D110BD10F0030309D0C3F1040303E0DD
:1030E000521E00F8011B5B1E0BB1002AF8D101EB48
:1030F000012303EB014303EB01630EE008C0203A18
:1031000008C040F8083B40F8043C40F8103B40F849
:103110000C3C40F8083C40F8043C202AEED801E082
:1031200008C0121F042AFBD803E000BF00F8011BEF
:10313000521E002AFAD1704710F003034FF000022C
:1031400019D0C3F1040303E0491E00F8012B5B1EF4
:103150008BB10029F8D1704704C0203904C040F871
:10316000082B40F8042C40F8102B40F80C2C40F8A9
:10317000082C40F8042C2029EED801E004C0091FD7
:103180000429FBD803E000BF00F8012B491E0029E9
:10319000FAD1704710F003024FF0FF030AD0C2F1DA
:1031A000040203E0491E00F8013B521E12B100293F
:1031B000F8D170474FF0FF320EE004C0203904C050
:1031C00040F8082B40F8042C40F8102B40F80C2C49
:1031D00040F8082C40F8042C2029EED801E004C067
:1031E000091F0429FBD802E000F8013B491E002911
:1031F000FAD170472DE9F04786B014468A46164644
:10320000170A05464FF0000823E0514628460CF007
:103210007DFF8146514628460CF018FF06EB002042
:1032200084B202AA2146484600F02EFA012807D0AF
:10323000380610D5BAF1000F07D04FF0000A08E0A9
:10324000BDF8080006B0BDE8F08728460CF0BCFECB
:103250000546002DD9D124F4FE40292804D02A287F
:1032600002D0CDF8008002E0024800680090BDF86E
:103270000000E7E7904601082DE9F8431446894627
:103280001646170A054619E0494628460CF03EFF47
:103290008046494628460CF0D9FE06EB002084B251
:1032A0006A462146404600F029FA012812D0380625
:1032B00006D5B9F1000F11D04FF00009002DE3D170
:1032C00024F4FE40222819D00CDC032812D0072851
:1032D0000CD115E0BDF90000BDE8F88328460CF0DC
:1032E00073FECFE7312803D0C02805D00020F3E7D4
:1032F0000F20F1E70620EFE71020EDE7FF20EBE7D6
:103300004FF48070E8E72DE9F843144689461646E5
:10331000170A054619E0494628460CF0F7FE804694
:10332000494628460CF092FE06EB002084B26A461D
:103330002146404600F01CFA012815D0380606D573
:10334000B9F1000F13D04FF00009002DE3D124F4A0
:10335000FE402C280FD06D280DD0AD38B0F5004FB1
:1033600009D0FF20BDE8F8839DF80000FAE7284661
:103370000CF02AFECDE70020F4E700002DE9F84329
:10338000144689461646170A054619E04946284656
:103390000CF0BCFE8046494628460CF057FE06EB72
:1033A000002084B26A462146404600F01BFA0128FC
:1033B00015D0380606D5B9F1000F12D04FF000092C
:1033C000002DE3D124F4FE407E280ED0BE280FD07D
:1033D0008E38B0F5004F08D00020BDE8F883009883
:1033E000FBE728460CF0F0FDCEE70EF08BFCF4E78F
:1033F0000048F2E7888401082DE9F0411F46144691
:103400000D4606460CF082FE3A46214600F0A0FA30
:10341000002322462946304611F0EAF824F4FE4102
:103420003046BDE8F0410DF0F1BA000001484068B7
:103430007047000028000020704730B504020020CB
:10344000831803FB03F5A54200D818465208F7D1AC
:10345000020900070A80000E488030BD2DE9F041C6
:103460008846050016464FF0FF3706D0286820B181
:10347000284606F0BBF8040002D53846BDE8F081C6
:103480002968A01C014402223046FFF7FFFD2146B7
:10349000284606F0E7F800EA182000F07F00EDE784
:1034A0002DE9F0418846050016464FF0FF3706D05B
:1034B000286820B1284606F099F8040002D538465D
:1034C000BDE8F0812968A01C014402223046FFF7C4
:1034D000DDFD2146284606F0C5F800EA182000F078
:1034E0007F00EDE770B50546006800280DD0002488
:1034F00003E000BF06F06CF804442146284606F0BD
:10350000B6F8FF28F6D1A41CA0B270BD2DE9F04199
:103510008846050016464FF0FF3706D0286820B1D0
:10352000284606F063F8040002D53846BDE8F0816D
:103530002968A01C014401223046FFF7A7FD21465F
:10354000284606F08FF800EA182000F07F00EDE72B
:103550002DE9F0418846050016464FF0FF3706D0AA
:10356000286820B1284606F041F8040002D5384604
:10357000BDE8F0812968A01C014404223046FFF711
:1035800085FD2146284606F06DF800EA182000F077
:103590007F00EDE770B50E46050033D000F060F90E
:1035A0002879A0B18100091D28680BF0ABFE044604
:1035B00007F0E1FB78B1002C24D068790021820764
:1035C00000D50121C00700D0491C287912E0042051
:1035D0000BF016FEEBE7224600230BA007F0D0FB12
:1035E000FEE700BF04EB800252F8042C44F82020D0
:1035F000401EC0B28842F5D844F821602879401CAA
:1036000028712C6070BD00004F7574206F66206DAE
:10361000656D6F727900000070B5054640798007CE
:1036200004D52846BDE8704000F011B904200BF025
:10363000E7FD044607F09FFBA8B1D4B120460EF089
:1036400055F821462846FFF7A5FF687940F00200AB
:103650006871C00705D02868D0E9001202602868A8
:103660004160204670BD2246002303A007F088FB7E
:10367000FEE7002070BD00004F7574206F66206D5E
:10368000656D6F72790000002DE9F8431746894691
:10369000060031D0306800282CD000204FEA1928CD
:1036A0004FF0FF34054600901EE0E9B230460EF0C0
:1036B00085F86A464946FFF7D1FE404504D100BF70
:1036C000BDF80000388014E071798A0704D500281D
:1036D00002DB0DB94907F3D5A04203DD0446BDF86E
:1036E000000038806D1C2DB23079A842DDDC002C42
:1036F00002DB0120BDE8F8830020FBE72DE9F84359
:1037000017468946060031D0306800282CD00020AA
:103710004FEA19284FF0FF34ADF8000005461DE0D0
:10372000E9B230460EF04AF86A464946FFF7B8FE5D
:10373000404503D1BDF80000388014E071798A0754
:1037400004D5002802DB0DB94907F3D5A04203DDFB
:103750000446BDF8000038806D1C2DB23079A842B7
:10376000DEDC002C02DB0120BDE8F8830020FBE753
:103770002DE9F84317468946060031D03068002805
:103780002CD000204FEA19284FF0FF348DF80000AC
:1037900005461DE0E9B230460EF010F86A4649468B
:1037A000FFF7B4FE404503D19DF80000387014E0E7
:1037B00071798A0704D5002802DB0DB94907F3D5D2
:1037C000A04203DD04469DF8000038706D1C2DB248
:1037D0003079A842DEDC002C02DB0120BDE8F88352
:1037E0000020FBE72DE9F8431746894606002CD058
:1037F0003068002827D04FEA19284FF0FF34002501
:103800001BE0E9B230460DF0D9FF6A464946FFF7A2
:103810009FFE404502D10098386013E071798A0715
:1038200004D5002802DB0DB94907F4D5A04202DD1A
:103830000446009838606D1C2DB23079A842E0DC57
:10384000002C02DB0120BDE8F8830020FBE7417972
:10385000890701D4002070470068006870470000A5
:1038600070B50E460179044600291BD0002017E0F0
:10387000226852F82020B24210D10025012912D02E
:103880008900091F20680BF03DFD054607F073FA1B
:1038900098B1002D06D0002001461FE0401CC0B2A8
:1038A0008142E5D870BD20680BF0FEFC25602571D3
:1038B000607920F00100607170BD2A4600230BA0E2
:1038C00007F05EFAFEE7226852F82020B24203D0E9
:1038D00045F82120491CC9B2401CC0B2227982425D
:1038E000F1D8D0B2401E2071256070BD4F75742094
:1038F0006F66206D656D6F727900000070B5040011
:1039000025D06079C00709D020460DF04BFF050097
:1039100004D00DF093FF28460BF0C6FC60798007B9
:1039200009D52046FFF793FF050004D00DF086FF70
:1039300028460BF0B9FC207910B120680BF0B4FCDC
:10394000002020602071607920F00700607170BD58
:1039500070B514460D4605F00FFD22462946BDE818
:10396000704000F001B8000037B582B00446BDF8E1
:103970000C1005F03BFE050011D40146204605F071
:1039800071FEBDF80C1000F07F00C1F306218842E3
:1039900005D1AD1C20680222284404A926E0FF209E
:1039A000ADF800002046FFF79DFD00B90220001D84
:1039B00085B2294620460FF003FC206807F0DBF9AA
:1039C000C0B1002C14D020680222284403A9801F13
:1039D000FFF75CFB20680222284404A9001FFFF7C0
:1039E00055FB2068022228446946801EFFF74EFBE3
:1039F00005B030BD002302A0226807F0C1F9FEE740
:103A00004F7574206F66206D656D6F7279000000D0
:103A100037B582B00446BDF80C1005F0E7FD05008F
:103A200011D40146204605F01DFEBDF80C1000F033
:103A30007F00C1F30621884205D1AD1C2068022217
:103A4000284404A926E0FF20ADF800002046FFF737
:103A500049FD00B90220001D85B2294620460FF01D
:103A6000AFFB206807F087F9C0B1002C14D02068A4
:103A70000222284403A9801FFFF708FB20680222C6
:103A8000284404A9001FFFF701FB206802222844F4
:103A90006946801EFFF7FAFA05B030BD002302A088
:103AA000226807F06DF9FEE74F7574206F66206D90
:103AB000656D6F727900000037B582B00446BDF8BD
:103AC0000C1005F093FD050011D40146204605F0C9
:103AD000C9FDBDF80C1000F07F00C1F3062188423B
:103AE00005D1AD1C20680122284404A926E0FF204E
:103AF000ADF800002046FFF7F5FC00B90220C01C1D
:103B000085B2294620460FF05BFB206807F033F9A9
:103B1000C0B1002C14D020680222284403A9401F01
:103B2000FFF7B4FA20680122284404A9C01EFFF759
:103B3000ADFA2068022228446946801EFFF7A6FAE3
:103B400005B030BD002302A0226807F019F9FEE796
:103B50004F7574206F66206D656D6F72790000007F
:103B600037B582B00446BDF80C1005F03FFD0500E6
:103B700011D40146204605F075FDBDF80C1000F08B
:103B80007F00C1F30621884205D1AD1C20680422C4
:103B9000284404A926E0FF20ADF800002046FFF7E6
:103BA000A1FC00B90220801D85B2294620460FF0F5
:103BB00007FB206807F0DFF8C0B1002C14D02068A4
:103BC0000222284403A90838FFF760FA206804227B
:103BD000284404A9801FFFF759FA206802222844CC
:103BE0006946801EFFF752FA05B030BD002302A0DF
:103BF000226807F0C5F8FEE74F7574206F66206DE8
:103C0000656D6F727900000010B518210448FEF749
:103C1000CBFF0448002101710121017010BD00009B
:103C2000F4F40020C80000204FF4B47190FBF1F2CE
:103C300001FB1200002802DA00F5B47000B20E4950
:103C40005A2802DA31F910007047A0F15A025A2AB4
:103C500003D2C0F1B40000B2F4E7A0F1B4025A2AD2
:103C600001D210B202E0C0F5B47000B231F8100019
:103C7000404200B270470000A48401082DE9F047DB
:103C800088B01D46109E92468946040007D0B9F1BF
:103C9000000F04D016F0120F10D0002004E0002016
:103CA00008B0BDE8F087401C215C0A2904D00D292A
:103CB00002D00029F7D1F3E7401CF1E7B00701D5A6
:103CC00047F618454FF000088DF81480204FCDF8C6
:103CD000108021E00498CDF8188028B3002105ABAE
:103CE00006AACDE90231CDE9006220442B465246B6
:103CF00049460EF077F80699691A0DB2B0B10499E9
:103D00000844049021780A290BD00D2909D0205CA1
:103D10000A2812D00D2810D00498205C08B1002D7C
:103D2000D8DC049868B110E00121D8E7049860B9A4
:103D30007A6804A920469047F3E70498401C049051
:103D4000EFE77A6804A9204690470498A8E70000A6
:103D5000E00000202DE9FF4F83B004464FF0000043
:103D6000DDF848A0DDF84090208093460F00608089
:103D700047D0BBF1000F44D05FEA8A7002D547F606
:103D8000184011900025A846BBF8086023E0781978
:103D9000CDE900A05946119B069AFFF76FFF8044BA
:103DA000B4F9020006EB09010144B1F5004F28D235
:103DB000304448446080A8EB0501CDF800A05A4685
:103DC000069B019800F022F8B4F90010814200DB54
:103DD000084620804546785D0028D8D15DB1781925
:103DE00010F8010C0A2801D00D2804D1618806EBD7
:103DF000090008446080B4F9020028B1A0EB090072
:103E0000608007B0BDE8F08F6680FAE72DE9FC5FBF
:103E10001E46DDF830A091460D46070009D0B9F1E5
:103E2000000F06D00020044600908DF804002DBB42
:103E30002BE00020BDE8FC9FDFF85480694638463F
:103E4000D8F80420904783460098D8F804203844D6
:103E50000021904780465FEACA7004D0594601A805
:103E600000F018F850B942465946484608F0F4FCAC
:103E700000B2002802DD2044304404B20098A84279
:103E8000DAD3002C01DDA01B04B22046D2E70000EB
:103E9000E000002000230278232902D0012A0DD05F
:103EA0000FE02AB10021012A04D0022A04D008E040
:103EB000012101E0017004E0017001E0202902D03D
:103EC0000123184670470221F6E700002DE9F0476C
:103ED0001E4614460D468246DDF8209015E000BFD0
:103EE0004FEA540808FB0657394650464A46904761
:103EF000002808DD44F30000C0EB540407EB06057E
:103F0000A4F1010401E005DA4446002CE8D1204682
:103F1000BDE8F0873846FBE710B5074C012020705C
:103F20000648FEF72CFE28B10421A068BDE8104029
:103F30000DF0A8BE0021F8E78400002030F5002035
:103F400010B5044690F83C00E16A90B0C20707D172
:103F5000A28E3AB1A2F57F43FF3B1AD0521EA28631
:103F6000A28EB2B909B1C20713D0402221466846D9
:103F7000FEF7ECFF21461448FEF7C6FE20460BF084
:103F800093F9FFF7C9FF0398C8B10146684688470F
:103F900015E0226B5242626289B1C20702D1A26A65
:103FA00052426262421C62F3000084F83C00D4E991
:103FB0000632C007C4E9062300D1A16B2162034881
:103FC000007810B010BD000030F500208400002003
:103FD00070B52948FEF7D3FD06E0C86B20F002005B
:103FE000C8632548FEF7D0FD0100F6D1234D68686F
:103FF0000DF0F0FE064631E000202870E06B8107EE
:1040000030D440F00200E063606A8119002805DCCA
:10401000002903DBA16809B120468847606A80193E
:10402000606219D4216A884200DD616222692146FA
:1040300004F110000AB1904701E006F0A5FA6268A9
:104040001AB1236801B218469047D4E908018142A9
:1040500002DB2046FFF774FF287818B10648FEF708
:104060008EFD03E021460448FEF78EFD0400C3D117
:104070000DF0B6FE686070BD30F5002084000020B1
:104080002DE9F041334C60681C300FF08FF8324D51
:10409000606800216A681C300DF001FC002006F009
:1040A0005DFF00EBC00101EB00104FF4A077A026EC
:1040B0005030B8420ADB002006F050FF00EBC00190
:1040C00001EB0010503090FBF6F000E0012002B24E
:1040D000606800211C300DF0ECFB606801220021BB
:1040E0001C300DF0E1FB606820300FF05FF8287E97
:1040F000800701D5194800E0194806F063FB024625
:104100006068002120300DF0CAFB002006F026FF79
:1041100000EBC00101EB00105030B8420ADB002078
:1041200006F01CFF00EBC00101EB0010503090FBCB
:10413000F6F000E0012002B26068002120300DF0AE
:10414000B8FB6068BDE8F0410122002120300DF08D
:10415000ABBB0000FC00002080760120D9D7D40042
:104160004D494500F8B5464C606824300FF01EF804
:10417000606847F6FF773A46002124300DF0CBFB0C
:104180006068FF22002124300DF065FB3D4D287E44
:10419000800701D53C4800E03C4806F013FB02468E
:1041A0006068002124300DF051FB394E287E3268C2
:1041B000800703D5374806F005FB024660680021FA
:1041C00024300DF0FBFB606800216A6824300DF09C
:1041D00075FBE888ADF8000060680421009A24307F
:1041E0000DF06CFB60680022114624300DF06BFB73
:1041F00060687F22022124300DF065FB6068032295
:10420000002124300DF069FB6068962200212430E3
:104210000DF0CFFB60684C22002124300DF0C4FB70
:10422000606828300EF0C2FF6068FF22002128304D
:104230000DF011FB60683A46002128300DF06BFB51
:10424000606800216A6828300DF000FB40F68800A5
:1042500006F0C4FA02466068202128300DF0F6FA14
:10426000287E7268800703D50B4806F0ABFA024639
:104270006068BDE8F840002128300DF09FBB0000C9
:10428000FC00002080760120D9D7D4004D4945009C
:104290005C8501084F4031004F4041002DE9F84F47
:1042A000FB4E70680EF082FFFF22002170680DF057
:1042B000D2FAF84F387E800701D5F74800E0F7487A
:1042C00006F080FA0246002170680DF0BFFA387ED1
:1042D000F34C800701D5F34800E0204606F072FA5F
:1042E0000246002170680DF03EFB387E800701D544
:1042F000EC4800E0204606F065FA024600217068AE
:104300000DF05CFB0021FA6870680DF032FB0021B3
:10431000FA6870680DF057FB7068001D0EF046FFDC
:10432000002006F01BFE502505EBC0004FF4A079DD
:10433000A024484507DB002006F010FE05EBC00076
:1043400090FBF4F000E0012002B270680021001D33
:104350000DF0E1FA7068FF220021001D0DF07BFADC
:10436000387E6FF07F4B800701D5584600E0CE487D
:1043700006F028FA024670680021001D0DF066FA6A
:10438000387E800701D5C94800E0C94806F01AFA0E
:10439000024670680021001D0DF062FA7068B84690
:1043A00002217A68001D0DF05BFAF888ADF8000074
:1043B00070680421009A001D0DF052FA002006F0EA
:1043C000CDFD05EB40004F46B84207DB002006F06C
:1043D000C5FD05EB400090FBF4F000E0012002B2C7
:1043E00070680021001D0DF04AFA70680122332127
:1043F000001DFFF70DFB70680021D8F80C20001D90
:104400000DF0B7FA98F81800800701D5A54800E02C
:10441000584606F0D7F9024670680021B146001DE3
:104420000DF0A1FAD9F8040046460021D8F80C2076
:10443000001D0DF0C8FA307E800701D5994800E0D4
:10444000584606F0BFF90246D9F8040000214E464E
:10445000001D0DF0B3FA98F81800800701D59148B7
:1044600000E0584606F0AEF9024670680021001DD3
:104470000DF00FFA98F81800C146800701D5894859
:1044800000E0584606F09EF9024670680021B046EA
:10449000001D0DF004FA706801220021001D0DF0CE
:1044A00008FA002006F09AFD01284FF000000DD810
:1044B00006F054FDC0EB00105030B84218DB00206D
:1044C00006F04CFDC0EB001050300EE006F046FD4B
:1044D000C0EB001005EB4000B84209DB002006F0FD
:1044E0003DFDC0EB001005EB400090FBF4F600E052
:1044F0000126002006F032FD05EB4000B84207DB44
:10450000002006F02BFD05EB400090FBF4F000E0EE
:104510000120304402B2D8F804000021001D0DF043
:10452000EBF9002006F05AFD01284FF000000DD8ED
:1045300006F014FDC0EB00105030B84218DB00202C
:1045400006F00CFDC0EB001050300EE006F006FD4A
:10455000C0EB001005EB4000B84209DB002006F07C
:10456000FDFCC0EB001005EB400090FBF4F600E012
:104570000126002006F0F2FC05EB4000B84207DB04
:10458000002006F0EBFC05EB400090FBF4F000E0AF
:104590000120304402B2D8F804000021001D0DF0C3
:1045A000B0F9002006F01AFD01284FF000000DD8E8
:1045B00006F0D4FCC0EB00105030B84218DB0020ED
:1045C00006F0CCFCC0EB001050300EE006F0C6FC4C
:1045D000C0EB001005EB4000B84209DB002006F0FC
:1045E000BDFCC0EB001005EB400090FBF4F600E0D2
:1045F0000126002006F0B2FC05EB4000B84207DBC4
:10460000002006F0ABFC05EB400090FBF4F000E06E
:104610000120304402B2D8F804000021001D0DF042
:1046200075F9002006F0DAFC01284FF000000DD8E3
:1046300006F094FCC0EB00105030B84218DB0020AC
:1046400006F08CFCC0EB001050300EE006F086FC4B
:10465000C0EB001005EB4000B84209DB002006F07B
:104660007DFCC0EB001005EB400090FBF4F600E091
:104670000126002006F072FC05EB4000B84219DB71
:10468000002006F06BFC05EB400090FBF4F012E01C
:10469000FC00002080760120F3EFEA005A4B440032
:1046A000ECE9E700423E3B0073625800E3DDD600D0
:1046B000978A80000120304402B2D8F8040000211B
:1046C0004646001D0DF00EF9002006F087FC01287B
:1046D0004FF000000DD806F041FCC0EB0010503048
:1046E000B84218DB002006F039FCC0EB0010503057
:1046F0000EE006F033FCC0EB001005EB4000B842C2
:1047000009DB002006F02AFCC0EB001005EB40009E
:1047100090FBF4F000E0012002B270680021001D5F
:104720000DF0E5F8706896220021001D0DF041F9AA
:10473000706839220021001D0DF036F970680C30C8
:104740000EF034FD716801F10C00091D0CF0B9FF89
:1047500099F81800C846800701D5FE4800E0FE48D9
:1047600006F030F80246706800210C300DF06EF84B
:1047700098F81800800701D5F84800E0F84806F0DE
:1047800021F80246706800210C300DF069F898F8A5
:104790001800DFF8D0A3800701D5F34800E05046A9
:1047A00006F010F80246706800210C300DF0DBF8BE
:1047B00098F81800800701D5EB4800E0504606F055
:1047C00001F80246706800210C300DF0F7F898F8F7
:1047D0001800800701D5E44800E0504605F0F2FFDC
:1047E0000246706800210C300DF053F898F818005C
:1047F000C146800701D5DC4800E0504605F0E2FFE5
:10480000024670680021B0460C300DF048F8706820
:1048100008300EF0CBFC99F818004E46800701D501
:10482000D24800E0D24805F0CDFF0246D8F8040097
:10483000102108300DF00AF8D8F80400B146012123
:10484000726808300DF002F83321706805F068FFD7
:104850000246D8F80400112108300CF0F7FF307E32
:10486000800701D5584600E0C24805F0ABFF02467C
:10487000D8F804002021464608300CF0E7FF7068A5
:104880000022012108300CF0FAFF3321C846D9F884
:10489000040005F045FF02467068122108300CF054
:1048A000DFFF98F81800DFF8D0A2800704D540F6A3
:1048B000CC4005F093FF02E0504605F083FF02462E
:1048C0007068102108300CF0CBFF98F81800C14632
:1048D000800701D5A94800E0504605F073FF024665
:1048E00070680121B04608300CF0BAFF99F8180042
:1048F0004E46800701D5A14800E0504605F062FF12
:104900000246D8F80400112108300CF0A9FF307ECF
:10491000B146800701D59A4800E0504605F052FFA5
:104920000246D8F804002021464608300CF098FFD3
:1049300099F81800800701D5904800E0584605F026
:1049400041FF02467068102108300DF00CF85846FF
:1049500005F038FF02467068012108300DF003F8B9
:10496000584605F02FFF024670681121B046083006
:104970000CF0F9FF99F818004E46800740F6AA2A75
:1049800001D5504601E040F6991005F027FF024698
:10499000D8F80400202108300CF0E5FF307EB14645
:1049A000800701D5754800E0584605F00BFF024628
:1049B000D8F804001021464608300CF06AFFC846BB
:1049C000584605F0FFFE024670680121B1460830E6
:1049D0000CF05FFF4646584605F0F4FE0246D9F853
:1049E0000400112108300CF054FF307EB0468007DF
:1049F00001D5504601E040F6991005F0EFFE024661
:104A0000D9F8040020214E4608300CF042FF7068AF
:104A10002922002108300CF0C2FF706810300EF01F
:104A2000C5FB706847F6FF72002110300CF073FF71
:104A30007068FF22002110300CF00DFF98F818006C
:104A4000800701D5584600E04A4805F0BBFE024603
:104A500070680021B14610300CF0F8FE98F818008C
:104A60004646800705D5584605F0ACFE014619229A
:104A700004E0404805F0A6FE01464C22706806F0AE
:104A8000BBF80246D9F804001021C84610300CF0DB
:104A9000DDFED8F80400B1460121726810300CF038
:104AA000D5FE4C21706805F03BFE0246D8F80400A4
:104AB000112110300CF0CAFE307E800701D5584617
:104AC00000E02C4805F07EFE0246D8F804002021C4
:104AD000464610300CF0BAFE99F81800C846800718
:104AE00040F6880902D540F6CC4000E0484605F083
:104AF00075FE02467068212110300CF0A7FE706828
:104B00000021D8F8042010300CF0AAFE70681021A3
:104B1000D8F8042010300CF0A3FE98F81800800795
:104B200003D5484605F05AFE02E00D4805F04AFE5E
:104B300002467068202110300CF092FE002006F032
:104B40000DFA05EB4000BA46504520DB002006F088
:104B500005FA17E0D9D7D4004D494500EDE7DF004D
:104B600040404000ADA8A5004F403100EEEEEE0001
:104B7000574F4900736258006E655F00423E3B002C
:104B8000E3DDD60005EB400090FBF4F000E00120EF
:104B900002B27068002110300CF071FE70680022C3
:104BA000012110300CF061FE98F81800474680078C
:104BB00001D5FA4800E0584605F004FE0246706848
:104BC000002110300CF0CFFE387EB846800701D5AA
:104BD000F24800E0584605F0F5FD024670681021E5
:104BE00010300CF0C0FE5F46584605F0EBFD024663
:104BF0007068012110300CF0B6FE384605F0E2FD79
:104C000002467068112110300CF0ADFEDFF890B351
:104C1000584605F0D7FD02467068202110300CF090
:104C2000A2FE98F81800800701D5DC4800E038465D
:104C300005F0C8FD02467068002110300CF029FE16
:104C400098F81800C146800701D5D44800E03846DE
:104C500005F0B8FD02467068102110300CF019FE06
:104C6000B846404605F0AEFD02467068102110308F
:104C70000CF00FFE384605F0A5FD024670681121C4
:104C800010300CF006FE4F46584605F09BFD0246DC
:104C90007068202110300CF0FCFD387E800701D5B3
:104CA000BE4800E0404605F08DFD024670680021D8
:104CB00010300CF083FE387E800701D5B74800E045
:104CC000404605F07FFD02467068102110300CF060
:104CD00075FE404605F076FD0246706801211030F1
:104CE0000CF06CFE404605F06DFD02467068112127
:104CF00010300CF063FEB846584605F063FD0246DE
:104D00007068202110300CF059FE002006F026F9C2
:104D100000EB800005EBC0005746B84209DB0020DD
:104D200006F01CF900EB800005EBC00090FBF4F0EE
:104D300000E0012002B27068002110300CF0DCFDB0
:104D4000002006F00BF900EB800005EBC000B84234
:104D500009DB002006F002F900EB800005EBC00043
:104D600090FBF4F000E0012002B2706800211030E6
:104D70000CF0C7FD002006F0F1F8C0EB0010503039
:104D8000B84208DB002006F0E9F8C0EB0010503014
:104D900090FBF4F000E0012002B2706800211030B6
:104DA0000CF0B4FD002006F0D9F8C0EB0010503034
:104DB000B84208DB002006F0D1F8C0EB00105030FC
:104DC00090FBF4F000E0012002B270680021103086
:104DD0000CF088FD002006F0C1F800EB800005EB28
:104DE0008000B84209DB002006F0B8F800EB800034
:104DF00005EB800090FBF4F000E0012002B2706847
:104E0000002110300CF073FD706803220021103077
:104E10000CF063FD70680022114610300CF053FD59
:104E200070687F22022110300CF04DFD7068002167
:104E3000D8F8042010300CF041FDB8F80600ADF8A9
:104E4000000070680421009A10300CF037FD706883
:104E50009622002110300CF0ACFD70683C22B52188
:104E60001030FEF7D5FD70682922002110300CF0BB
:104E700096FD70684C22002110300CF095FD706892
:104E80009622002110300CF085FD70680022102160
:104E900010300CF07FFD706814300EF087F90020A0
:104EA00006F09CF832284FF000000FD806F056F8B4
:104EB00000EB800005EB8000B84219DB002006F013
:104EC0004DF800EB800005EB80000EE006F046F8A0
:104ED00000EB800005EBC000B84209DB002006F0C3
:104EE0003DF800EB800005EBC00090FBF4F000E023
:104EF000012002B27068002114300CF0F8FC7068D8
:104F000018300EF053F9002006F068F832284FF000
:104F100000000FD806F022F800EB800005EB4000FF
:104F2000B84219DB002006F019F800EB800005EB11
:104F300040000EE006F012F800EB800005EB800068
:104F4000B84209DB002006F009F800EB800005EB11
:104F5000800090FBF4F000E0012004B2706822466B
:104F6000002118300CF0C8FC70682246002118306F
:104F70000CF0C7FC70682246002118300CF0C6FC0B
:104F800070682246002118300CF0ACFC7068224694
:104F9000BDE8F84F002118300CF0A9BC4F4031009B
:104FA0008888880030B5032B15D10423082A12D233
:104FB000DFE802F0110406080A0C0E1002220AE0D3
:104FC000042208E0062206E0092204E00B2202E0A7
:104FD0000D2200E00F22C1F3CF0401F00701C1F15F
:104FE0000801CD1A01219940491EC943035DA9401A
:104FF0000B40AA401343035530BD00002DE9F05F7C
:10500000FE4C606830300EF0D1F8002005F0E6FF6D
:10501000A026502501284FF4A0774FF000000DD8AE
:1050200005F09CFFC0EB00105030B84218DB0020A8
:1050300005F094FFC0EB001050300EE005F08EFF3D
:10504000C0EB001005EB4000B84209DB002005F082
:1050500085FFC0EB001005EB400090FBF6F000E090
:10506000012002B26068002130300CF04FFC0020BB
:1050700005F0B4FF01284FF000000DD805F06EFFD9
:10508000C0EB00105030B84218DB002005F066FF7E
:10509000C0EB001050300EE005F060FFC0EB0010D8
:1050A00005EB4000B84209DB002005F057FFC0EBDC
:1050B000001005EB400090FBF6F000E0012002B28A
:1050C0006068002130300CF017FC002005F086FFEE
:1050D00001284FF000000DD805F040FFC0EB001094
:1050E0005030B84218DB002005F038FFC0EB00104C
:1050F00050300EE005F032FFC0EB001005EB400031
:10510000B84209DB002005F029FFC0EB001005EBD9
:10511000400090FBF6F000E0012002B26068002140
:1051200030300CF0EEFB002005F058FF01284FF066
:1051300000000DD805F012FFC0EB00105030B8424F
:1051400018DB002005F00AFFC0EB001050300EE025
:1051500005F004FFC0EB001005EB4000B84209DB8E
:10516000002005F0FBFEC0EB001005EB400090FBBB
:10517000F6F000E0012002B26068002130300CF04F
:10518000B1FBDFF88092DFF8788299F81800D8F840
:105190001C20800703D59C4805F014FB024660687C
:1051A000102130300CF0DFFB606834300DF0FEFF72
:1051B00099F81800DFF854B2800703D5584605F077
:1051C00001FB03E040F6EE6005F008FB0246606874
:1051D000002134300CF0C7FB002005F0FFFE012851
:1051E0004FF000000DD805F0B9FEC0EB00105030B4
:1051F000B84218DB002005F0B1FEC0EB00105030C3
:105200000EE005F0ABFEC0EB001005EB4000B8422D
:1052100009DB002005F0A2FEC0EB001005EB40000A
:1052200090FBF6F000E0012002B26068002134300B
:105230000CF062FB002005F0D1FE01284FF00000C9
:105240000DD805F08BFEC0EB00105030B84218DBD3
:10525000002005F083FEC0EB001050300EE005F09A
:105260007DFEC0EB001005EB4000B84209DB0020DA
:1052700005F074FEC0EB001005EB400090FBF6F06B
:1052800000E0012002B26068002134300CF039FBEC
:10529000002005F0A3FE01284FF000000DD805F016
:1052A0005DFEC0EB00105030B84218DB002005F066
:1052B00055FEC0EB001050300EE005F04FFEC0EB85
:1052C000001005EB4000B84209DB002005F046FE67
:1052D000C0EB001005EB400090FBF6F000E0012071
:1052E00002B26068002134300CF0FCFA60682C30A7
:1052F0000DF05CFF002005F031FE05EB8000BA46A2
:10530000504507DB002005F029FE05EB800090FBEF
:10531000F6F000E0012002B2606800212C300CF0B1
:10532000FAFA99F81800D8F820204F46800703D5DC
:10533000584605F047FA0246606801212C300CF00F
:1053400012FB387E800701D5332200E066226068B8
:1053500001212C300CF07FFA6068332210212C30B0
:105360000CF079FA6068FF2202212C300CF073FAFD
:1053700060680221D8F824202C300CF0F4FA606820
:1053800002217A682C300CF061FA387ED8F8282097
:10539000800703D51E4805F015FA02466068002113
:1053A0002C300CF053FA606801217A682C300CF034
:1053B0004DFA6068022201212C300CF060FA60681E
:1053C000042201212C300CF055FA606801217A6822
:1053D0002C300CF045FA002005F0C0FD00EB400039
:1053E00057465030B84215DB002005F0B7FD00EB02
:1053F0004000503090FBF6F00DE00000FC00002073
:105400005C85010880760120888888004F40310043
:1054100066666600012002B2606800212C300CF044
:1054200066FA002005F0DAFD01284FF000000DD8E3
:1054300005F094FDC0EB00105030B84218DB00209E
:1054400005F08CFDC0EB001050300EE005F086FD3D
:10545000C0EB001005EB4000B84209DB002005F06E
:105460007DFDC0EB001005EB400090FBF6F000E086
:10547000012002B2606800212C300CF03DFA0020BF
:1054800005F0ACFD01284FF000000DD805F066FDD9
:10549000C0EB00105030B84218DB002005F05EFD74
:1054A000C0EB001050300EE005F058FDC0EB0010CE
:1054B00005EB4000B84209DB002005F04FFDC0EBD2
:1054C000001005EB400090FBF6F000E0012002B276
:1054D000606800212C300CF014FA002005F07EFDED
:1054E00001284FF000000DD805F038FDC0EB00108A
:1054F0005030B84218DB002005F030FDC0EB001042
:1055000050300EE005F02AFDC0EB001005EB400026
:10551000B84209DB002005F021FDC0EB001005EBCF
:10552000400090FBF6F000E0012002B26068BDE8A8
:10553000F05F00212C300CF0D5B900002DE9F047C8
:105540006B4C606840300DF031FE6A4F387E80074A
:105550001DD540F6AA2005F041F9024660680021F9
:1055600040300CF000FA606844300DF01FFE00205F
:1055700005F0F4FC4FF4A078A026503040450ADB3B
:10558000002005F0EBFC503090FBF6F004E05A48A8
:1055900005F018F9E1E7012002B26068002144300B
:1055A0000CF087F9606800F14409002005F0D6FC92
:1055B00000EB8000502505EB4000404509DB002052
:1055C00005F0CCFC00EB800005EB400090FBF6F012
:1055D00000E0012002B292214846FEF719FA606805
:1055E00000F14409002005F0B9FC00EB800005EB58
:1055F0004000404509DB002005F0B0FC00EB8000D6
:1056000005EB400090FBF6F000E0012002B2932190
:105610004846FEF7FDF9387E800701D5374800E09F
:10562000374805F0CFF802466068002144300CF09E
:1056300036F9606848300DF0B9FD002005F08EFCA9
:1056400000EB400047465030B84208DB002005F030
:1056500085FC00EB4000503090FBF6F000E00120AC
:1056600002B26068002148300CF023F9002005F0F8
:1056700075FC05EB8000B84207DB002005F06EFCEE
:1056800005EB800090FBF6F000E0012002B26068BC
:10569000002148300CF062F9002005F05FFC05EBBA
:1056A0004000B84207DB002005F058FC05EB400045
:1056B00090FBF6F000E0012002B260680021483063
:1056C0000CF015F9002005F049FC5030B84206DB1B
:1056D000002005F043FC503090FBF6F000E0012084
:1056E00002B26068BDE8F047002148300CF013B901
:1056F000FC00002080760120BDADA100E3DDD600D6
:10570000978A80002DE9F041904C60684C300DF094
:105710004DFD002005F022FC502505EB8000AF0078
:10572000A026B84207DB002005F018FC05EB80003E
:1057300090FBF6F000E0012002B2606800214C30DE
:105740000CF0E9F8002005F009FC00EB800005EB07
:105750004000B846404509DB002005F0FFFB00EBA8
:10576000800005EB400090FBF6F000E0012002B263
:10577000606800214C300CF0BAF8754F6068002169
:105780007A684C300CF09AF86068002211464C3070
:105790000CF099F860687F2202214C300CF093F8ED
:1057A000002005F0DBFB00EB40005030404508DBFB
:1057B000002005F0D3FB00EB4000503090FBF6F0EA
:1057C00000E0012002B2606800214C300CF085F846
:1057D000002005F0C3FB00EB800005EB40004045D6
:1057E00009DB002005F0BAFB00EB800005EB400070
:1057F00090FBF6F000E0012002B2606800214C301E
:105800000CF066F86068962200214C300CF0D1F85C
:1058100060684C2200214C300CF0C6F860685030B3
:105820000DF0C4FC60680022022150300CF04BF8EF
:10583000002005F093FB05EB8000404507DB0020CE
:1058400005F08CFB05EB800090FBF6F000E00120FA
:1058500002B26068002150300CF05DF860683DA233
:105860004FF4B7715030FEF77BF93B4840F26911B5
:10587000426B60685030FEF777F860680121BA68C3
:1058800050300CF076F8002005F068FB00EB40008B
:1058900045465030A84208DB002005F05FFB00EBD6
:1058A0004000503090FBF6F000E0012002B260684A
:1058B000002150300CF020F8002005F04FFB00EBE9
:1058C00040005030A84208DB002005F047FB00EB09
:1058D0004000503090FBF6F000E0012002B260681A
:1058E000002150300CF00DF8002005F037FB00EBE4
:1058F00040005030A84208DB002005F02FFB00EBF1
:105900004000503090FBF6F000E0012002B26068E9
:10591000002150300BF0FAFF002005F01FFB00EBD8
:1059200040005030A84208DB002005F017FB00EBD8
:105930004000503090FBF6F000E0012002B26068B9
:10594000BDE8F041002150300BF0CCBFFC0000203E
:1059500080760120EF808C005C85010817B581B04E
:10596000022A03D8BDF8080004B010BDBDF8083005
:10597000BDF80400C3F3C401C0F3C40421441F29CB
:1059800000D31F2161F3C7005907890E01EB533182
:1059900000F0070401EBC40101EB5031ADF8040045
:1059A0003F2900D33F21CC0864F3020061F34F305C
:1059B000C3F30421C0F304231944ADF804001F29E4
:1059C00000D31F2161F30C20ADF80400FF2A07D09B
:1059D000DDE9010104F0ECFF0090BDF80000C3E731
:1059E00080B2C1E717B581B0022A03D8BDF808001C
:1059F00004B010BDBDF80830BDF80400C3F3C40105
:105A0000C0F3C404091B002900DC002161F3C700B6
:105A10005907890E01EB533100F0070401EBC40173
:105A200001EB5031ADF80400002900DC0021CC0866
:105A300064F3020061F34F30C3F30421C0F3042385
:105A4000C91AADF80400002900DC002161F30C2024
:105A5000ADF80400FF2A07D0DDE9010104F0A8FF3A
:105A60000090BDF80000C3E780B2C1E72DE9F8431C
:105A70007F4C606838300DF099FB002005F06EFA1D
:105A8000C0EB0010502707EB40004FF4A078A02592
:105A9000404509DB002005F061FAC0EB001007EB80
:105AA000400090FBF5F000E0012002B260680021A8
:105AB00038300BF044FF6068FF22002138300BF0D3
:105AC000CAFE6C4E307E800701D56B4800E06B4803
:105AD00004F078FE02466068002138300BF0B6FE14
